:020000040000FA
:10000000301D0020B5160000F33400004915000033
:100010004915000049150000491500004915000068
:10002000491500004915000049150000A110000005
:100030004915000049150000491000001B3400005C
:100040007516000075160000751600007516000084
:100050007516000075160000751600007516000074
:100060007516000075160000751600007516000064
:100070007516000075160000751600007516000054
:100080007516000075160000751600007516000044
:100090007516000075160000751600007516000034
:1000A0007516000075160000751600007516000024
:1000B0007516000075160000751600007516000014
:1000C0007516000075160000751600007516000004
:1000D00075160000751600007516000075160000F4
:1000E00075160000751600007516000075160000E4
:1000F00075160000751600007516000075160000D4
:1001000075160000751600007516000075160000C3
:1001100075160000751600007516000075160000B3
:1001200075160000751600007516000075160000A3
:100130007516000075160000751600007516000093
:10014000751600007BB972B90029BEBF00204FF0C0
:10015000004106E008BF00281CBF6FF000414FF0CF
:10016000FF3000F0AFB9ADF1080C6DE904CE002905
:1001700009DB002B1ADB00F035F8DDF804E0DDE9DF
:10018000022304B07047404261EB4101002B1BDBAE
:1001900000F028F8DDF804E0DDE9022304B0404275
:1001A00061EB4101524263EB43037047524263EB00
:1001B000430300F017F8DDF804E0DDE9022304B0A2
:1001C000404261EB41017047524263EB430300F050
:1001D00009F8DDF804E0DDE9022304B0524263EBE4
:1001E000430370472DE9F0478C46089D04468A4634
:1001F000002B4AD18A42174662D9B2FA82F64EB132
:10020000C6F1200E01FA06F3B740B44020FA0EFE04
:100210004EEA030A4FEA1748230C1FFA87F9BAFB84
:10022000F8FE08FB1EAA0EFB09F243EA0A439A42B3
:100230000BD9FB180EF1FF312CBF012000209A4290
:1002400002D9002800F02A818E469A1AA3B2B2FB86
:10025000F8F008FB102200FB09F943EA0244A1452B
:1002600007D93C1900F1FF3302D2A14500F21081F9
:100270001846A4EB090440EA0E4000211DB1F440E9
:100280000023C5E90043BDE8F0878B4208D9002D63
:1002900000F0F2800021C5E9000C0846BDE8F087B7
:1002A000B3FA83F100294ED16345C0F0E880824261
:1002B00040F2E5800846002DE5D0C5E9004AE2E7B6
:1002C00002B9FFDEB2FA82F6002E40F099808B1A56
:1002D0004FEA124E1FFA82F801214FEA144CB3FB89
:1002E000FEF20EFB123008FB02F94CEA004CE1452D
:1002F00008D917EB0C0C02F1FF3302D2E14500F2F2
:10030000CA801A46ACEB090CA3B2BCFBFEF00EFB94
:1003100010CC08FB00F843EA0C44A0450ED93C1968
:1003200000F1FF332CBF4FF0010C4FF0000CA04543
:1003300003D9BCF1000F00F0A8801846A4EB080414
:1003400040EA02409AE7C1F120048B4002FA01FE24
:100350000CFA01F6E24020FA04F72CFA04FC00FA49
:1003600001F813433E431F0C320C1FFA83F9BCFB08
:10037000F7F007FB10CC00FB09FA42EA0C4CE2450F
:1003800008D913EB0C0C00F1FF3202D2E24500F267
:1003900089801046ACEB0A0CB6B2BCFBF7FA07FB3F
:1003A0001ACC0AFB09F946EA0C42914506D99A187B
:1003B0000AF1FF3601D291457AD8B2464AEA0040A6
:1003C000A2EB0902A0FB0E67BA42B446B94602D3BB
:1003D00007D1B04505D2B6EB0E0C67EB030301382D
:1003E0009946002D6BD0B8EB0C0362EB090202FAC0
:1003F00004F4CB40CA4000211C43C5E9004242E757
:10040000B740C6F1200201FA06F3B44021FA02FC1B
:100410004FEA174E20FA02F21FFA87F8BCFBFEF1F2
:100420001A430EFB11CC01FB08F0130C43EA0C4CF1
:10043000604507D917EB0C0C01F1FF3301D2604581
:1004400033D81946ACEB000C92B2BCFBFEF00EFBAD
:1004500010CC00FB08F342EA0C4C634507D917EBBC
:100460000C0C00F1FF3201D2634525D81046ACEBED
:10047000030340EA014130E72946284603E7841A8E
:100480006CEB030301209A4615E702383C4455E71C
:1004900002383C44EDE6023ABC4433E7AEF1020ECA
:1004A0003B44D2E602389C4474E70239BC44C9E7B5
:1004B000AAF1020A1A4481E70238BC44D7E7294668
:1004C000E1E600BF704700BF2DE9E04F2746A04698
:1004D000A146A246A346A4462DED108B4FF0000581
:1004E00045EC185B45EC195A45EC1A5A45EC1B5A79
:1004F00045EC1C5A45EC1D5A45EC1E5A45EC1F5A5A
:10050000F1EE105A4FF66076C0F6FF763540E1EE18
:10051000105A84F3008825462646A447BDEC108B6C
:10052000BDE8E08F82680C4B9A60036883F388888B
:10053000436883F38988027B02F00101EFF394831F
:1005400023F00303920748BF43F0020309B143F0CD
:10055000010383F39488704700ED02E0084AD368F2
:1005600048B123F400531B041B0C43F0BF6343F456
:100570000033D36070479BB243F40053F5E700BFEC
:1005800000ED00E0084AD36840B19BB243F48043D9
:1005900043F0BF6343F40033D360704723F48043D8
:1005A0001B041B0CF4E700BF00ED00E0084AD36811
:1005B00040B19BB243F0080343F0BF6343F4003300
:1005C000D360704723F008031B041B0CF4E700BF43
:1005D00000ED00E0034AD2F88C3043F44063C2F8E7
:1005E0008C30704700ED00E0084B1A6818B142F0FB
:1005F00001021A60704722F001021A601A6811B1F4
:1006000042F00202F5E722F00202F2E7D0ED00E04C
:100610000B6801330B60014B1B68184770260020E4
:100620002DE9F04F85B00E9C9B46012CB8BF0124EC
:10063000012B0CBF30232023164682468846012515
:100640000A270022DFF86C900293B6FBF9F30193BE
:100650000AB9B1451CD8019B414603F13000D0478F
:1006600001220135019B013F09FB13660A23012F7B
:10067000B9FBF3F9E9D1414606F13000D047BBF1AF
:10068000030F02D1641B002C0EDC05B0BDE8F08F17
:10069000BC42E7DBBBF1020FE4D84146029803926B
:1006A0000135D047039ADDE741462020D047013C81
:1006B000E9E700BF00CA9A3B014B1860704700BFD2
:1006C00070260020002313B502AC44F8043D024616
:1006D0000B460348214602F0D8FC02B010BD00BF13
:1006E000110600004FF02002EFF3118382F311880E
:1006F000BFF36F8F0121044AC2F8401583F31188BC
:10070000BFF36F8F0020704700900350524A136868
:1007100043F0020313600022D30003F57F03D3F8F4
:100720000013013108D0D3F800130132D3F8043399
:10073000B2F5807F0B60EFD1484AD36913F0010313
:100740003BD0474B1946D3F80024012AFBD1C3F80C
:100750000425D1F80034012BFBD1404BDA69D207D4
:1007600008D5DA693E4922F00102DA61D1F80024A5
:10077000012AFBD11A6A01320AD11A6A22F0FF0259
:1007800042F020021A62364AD2F80034012BFBD123
:100790000022334BC3F80425D3F80024012AFBD1EF
:1007A000BFF34F8F2F49304BCA6802F4E062134306
:1007B000CB60BFF34F8F00BFFDE7126A0132C0D09C
:1007C0002A4A116809290AD12949096801390129E8
:1007D0009EBF4FF05021C1F81431C1F81831136891
:1007E000092B09D1224B1B68012B01BF214A136041
:1007F000A2F63822C2F878351C4B1A68092A0BD1A8
:100800001B4A1268022A07D100211A4A11600121ED
:10081000A2F63822C2F878151B68092B06D1144BB2
:100820001B68022B02BF0C22134B1A600D4BD3F82E
:100830008C2042F44062C3F88C20D3F8882042F424
:100840007002C3F88820BFF34F8FBFF36F8F0B4B3D
:100850000B4A1A60704700BFD0ED00E00080FF0037
:100860000090035000ED00E00400FA053001FF00A5
:100870003401FF00384A0050E4AE035074260020D3
:100880000090D00308B504464FF02002EFF3118327
:1008900082F31188BFF36F8F02F0C1FD204600F094
:1008A0004FFF034802F067FD00F048FEFCE700BF81
:1008B000BF3D00000A2838B50446074D04D128681A
:1008C0000D2143685B6898472868E1B243685B681C
:1008D0009847204638BD00BF0800002010B5044CE2
:1008E000204601F0CFF82046BDE81040FFF7E4BEF7
:1008F000B508000008B5044801F0DAF9034B1860A8
:10090000FFF7ECFF002008BDE83D000008000020D4
:1009100010B54FF02003EFF3118283F31188BFF37A
:100920006F8F154C237833B982F31188BFF36F8F23
:100930006FF0440010BD013BDBB2237033B182F392
:100940001188BFF36F8F6FF00F00F3E70B4B01219E
:10095000187838B1217082F31188BFF36F8F6FF070
:100960000A00E7E7197082F31188BFF36F8F044A1A
:1009700011601870DEE700BF1E1900201D1900204D
:100980000450005010B54FF02002EFF3118382F3B2
:100990001188BFF36F8F144C207898B183F31188BE
:1009A000BFF36F8F4FF05022D2F81C34D2F81824C6
:1009B00003F0030343F48033934314BF6FF0430009
:1009C000002010BD0122227083F31188BFF36F8FC6
:1009D0004FF05023C3F80401C3F818150221C3F8DF
:1009E00004139A60DEE700BF1C190020F8B54FF031
:1009F0002002EFF3118382F31188BFF36F8F294A2E
:100A00001078441C147080B183F31188BFF36F8F8A
:100A10004FF05023D3F80C3403F00113B3F1011F4E
:100A20000CBF00206FF0430009E01F4D2F783FB14D
:100A3000107083F31188BFF36F8F6FF00A00F8BD59
:100A400001262E7083F31188BFF36F8F4FF050246F
:100A500021B3052000F016FDC4F80071D4F804336A
:100A6000C4F804632660D4F800219AB10022DB07A1
:100A700058BF0123C4F800214FF0200258BFC4F82A
:100A800008330A4B0520C3F8802100F0EBFC00235B
:100A90002B70BDE720BF40BF20BFE4E7C4F80011C2
:100AA0002660F4E71E1900201D19002000E100E077
:100AB0000022104B10B4C3F840214FF02002EFF396
:100AC000118482F31188BFF36F8F0B4AD3F80405AA
:100AD0001168401A20F07F4323F0FF030B4413609A
:100AE00084F31188BFF36F8FC0F30F205DF8044BC0
:100AF00001F0D6BC005001500C00002038B51A4857
:100B000001F0D6F860B3436802211B6898470024BF
:100B10004FF48073154D4FF40012C5F80845C5F821
:100B200040354FF48033C5F80433114B01211C606C
:100B3000104B1520C3F88021224600F0B7FC152089
:100B400000F090FC012320460B4A13602B60D5F87F
:100B5000043503F5807323F07F43C5F8403538BD75
:100B60004FF0FF30FBE700BFEF3D000000500150A9
:100B70004051015000E100E00850015070B54FF6BF
:100B8000FE76B0F1FF3F08BF30464FF02003EFF391
:100B9000118483F31188BFF36F8F421EB242A8BF46
:100BA0003246104D104BD5F804151B6822EAE2724C
:100BB000C81A20F07F40FF3000EB022020F0FF0039
:100BC0000344591A21F07F411F2998BF03F5807310
:100BD00023F07F43C5F8403584F31188BFF36F8F4E
:100BE00070BD00BF005001500C0000204FF02002EB
:100BF000EFF3118382F31188BFF36F8F064AD2F8A7
:100C00000405064A1268801AC0F30F2083F3118886
:100C1000BFF36F8F704700BF005001500C000020E1
:100C200008B543B2002B0CDB012200F01F018A4003
:100C30005B091049203341F82320BFF34F8FBFF3E6
:100C40006F8F830003F1A04303F540533128D3F89D
:100C5000002806D0002A07DA02F00302023A012A2D
:100C600002D8054AC3F80028002102F015FC002034
:100C700008BD00BF00E100E00001008030B54FF486
:100C800040444CF2040585B04FF440412C4802F03A
:100C900072FB21682B4802F06EFB29682A4802F09B
:100CA0006AFB10220021684602F0A5FC2368684612
:100CB00000930294FFF736FC0120FFF763FC00204D
:100CC000FFF74CFC0120FFF771FC01210020FFF72A
:100CD0008BFCFFF77FFC2C681C4802F04CFB0820C3
:100CE000FFF79EFF24F00104BFF34F8FBFF36F8F18
:100CF0006408640020462146224623469FED140ADC
:100D0000DFED130A9FED121ADFED111A9FED102A85
:100D1000DFED0F2A9FED0E3ADFED0D3A9FED0C4A05
:100D2000DFED0B4A9FED0A5ADFED095A9FED086A85
:100D3000DFED076A9FED067ADFED057AFFF7C4FB6A
:100D4000203F0000373F00004C3F00006A3F00009A
:100D5000000000002DE9F843694802F00CFB002177
:100D6000DFF8E481674F684D58F82140CA0301F568
:100D7000C07347F82340654802F500434E1C02F05B
:100D8000FAFA634B14F0100F6249634808BF194622
:100D900002F0F1FA14F0040F14BF72212D2128463D
:100DA00002F0E9FA14F0020F14BF77212D21284632
:100DB00002F0E1FA14F0010F14BF78212D2128462A
:100DC00002F0D9FA14F4807F14BF6C212D2128463B
:100DD00002F0D1FA514802F0CEFA202E3146C3D1AA
:100DE0004F4B484CC3F3C432C3F30E03C3F5004367
:100DF000C3F34313C4F80025C4F80435D4F8001530
:100E0000D4F804254748520102F0B5FA434802F0ED
:100E1000B2FA424802F0AFFA434802F0ACFA0021BD
:100E2000DFF82881384E58F821504A0301F5E07365
:100E300044F823503D4802F500534F1C02F09BFA42
:100E4000334B15F0100F3349334808BF194602F0F1
:100E500092FA15F0040F14BF72212D21304602F0D2
:100E60008AFA15F0020F14BF77212D21304602F0C7
:100E700082FA15F0010F14BF78212D21304602F0BF
:100E80007AFA15F4807F14BF6C212D21304602F0D0
:100E900072FA224802F06FFA202F3946C3D100249B
:100EA0001E4802F068FA224802F065FA154B214DFF
:100EB000DFF89C80DFF89C90C3F8C04405EBC406C3
:100EC000777955F83420002F14BF43464B4621460E
:100ED000194802F050FA57B91848013402F04BFA99
:100EE000162CEBD10D48BDE8F84302F044BA307936
:100EF000FFF796FE08B11248EFE71248EDE700BF92
:100F00002D3E000000300050653E0000503E0000C5
:100F1000163E00000D3E0000093F00002543000082
:100F2000E07F0000683E0000AE3E0000D03E0000C2
:100F3000E43E0000D83B0000003F00000C3F0000F2
:100F4000133F00001B3F0000583B0000883C00009E
:100F5000223E00001A3E0000902908B5134639D100
:100F60000A4601461D4801F005FBBDE808407146F0
:100F700072467346B7EE000AF7EE000AB7EE001AA3
:100F8000F7EE001AB7EE002AF7EE002AB7EE003AA5
:100F9000F7EE003AB7EE004AF7EE004AB7EE005A15
:100FA000F7EE005AB7EE006AF7EE006AB7EE007A85
:100FB000F7EE007A8EF3008C10B4F1EE10CA4FF603
:100FC0006074C0F6FF740CEA040CE1EE10CA10BCA9
:100FD000F44674476FF01500C7E700BF100000200B
:100FE00004488168406A884203D003494FF0805228
:100FF0000A607047DC18002004ED00E00023202187
:101000000348C2180133412B82F80013F9D170470D
:1010100000E100E0094A0A49936809685866996640
:1010200008494B6843F080534B60002383F31188D9
:10103000BFF36F8F9368986E704700BFDC18002075
:10104000383D000000ED00E013498A684FF02800A9
:101050001044EFF3098C80E8F01F202080F3118802
:10106000BFF36F8F0D4F4FF000664A6A8A603E6093
:10107000506E0023536680F3118804B506488068DB
:1010800002F03EFABDE8044002F1280090E8F01FAB
:101090008CF3098870470000DC18002004ED00E0A4
:1010A0001EF0040F0CBFEFF30880EFF30980816995
:1010B00031F8021C11F0FF010229FFD001B502F046
:1010C00014FA01BD38B51B4C05461B4802F053F914
:1010D000A36AD90602D5194802F04DF9A36A1A0786
:1010E00002D5174802F047F9A36A9B070ED51548A9
:1010F00002F041F9616BA36A180607D5124802F0A5
:101100003AF91DB1A36A23F08003A362094CA36AD4
:10111000DA0702D50D4802F02EF9A36A9B0602D524
:101120000B4802F028F9A36AA36A002043F0FF03EA
:10113000A36238BD00ED00E0F54000000C41000066
:1011400040410000544100006D4100008441000016
:10115000A441000038B51E4C05461E4802F00BF9AC
:10116000A36AD90402D51C4802F005F9A36A1A053E
:1011700002D51A4802F0FFF8A36A9B050ED518485D
:1011800002F0F9F8A16BA36A180407D5154802F01C
:10119000F2F81DB1A36A23F40043A3620C4CA36AC6
:1011A000590502D5104802F0E6F8A36ADA0509D518
:1011B0000E4802F0E0F8064A0020936A43F47F43A9
:1011C000936238BDA36A9B04F5D50948F1E700BFD7
:1011D00000ED00E0674000007E400000404100005C
:1011E00090400000AA400000C0400000DC40000029
:1011F000A441000010B51C4C1C4802F0BCF8A36AC6
:101200009A0102D51A4802F0B6F8A36ADB0102D5AA
:10121000184802F0B0F8A36ADC0202D5164802F0C2
:10122000AAF8114CA36A180302D5144802F0A3F8D7
:10123000A36A590302D5124802F09DF8A36A9A03E3
:1012400002D5104802F097F8074CA36ADB0302D5D9
:101250000D4802F090F8A36A00206FEA03436FEA9A
:101260001343A36210BD00BF00ED00E0B4420000D4
:10127000CD420000E1420000FC4200002743000094
:10128000464300006C4300008743000010B51A4C31
:101290001A4802F070F8A1696369580602D5184827
:1012A00002F069F86369D90707D5164802F063F8B8
:1012B000636943F0FF03636110BD63699A0701D559
:1012C0001148F3E763695B0701D51048EEE76369EE
:1012D000180701D50E48E9E76369D90601D50D481D
:1012E000E4E763699A0601D50B48DFE763691B06EB
:1012F000DED50A48DAE700BFD0ED00E0D4410000B7
:10130000EE410000FF41000016420000354200009F
:10131000514200006F42000085420000A0420000E0
:101320003D4B70B55E6801F07F43B3F17F4F0546DA
:101330000C465DD111F0010041D048061BD429684C
:10134000364B37480B44012B98BF296C02F013F839
:1013500014F00804304B09D0EFF389855C6814F46D
:10136000006408D12F4802F006F841E0EFF38885C9
:101370005B681905F6D4C6F30806F21E092A3FD8A1
:10138000DFE802F005383A2D343E3E3E3E3C26482A
:1013900001F0F1FF204BDA6A920701D52348E2E71A
:1013A000D86A10F080400AD0214801F0E4FF214BB8
:1013B0001B784BB10120FFF785FE06282BD029466C
:1013C000BDE8704000F0D2B81B4B1B781BB1012068
:1013D000FFF7C0FEF1E7194B188884B214B1FFF78C
:1013E00009FFEAE7164B58690028E8D0FFF74EFFDF
:1013F0000020E4E70020DEE70020E9E71148B2E73B
:1014000011481249A6F110020F2ED8BF014610480C
:1014100001F0B1FFECE770BD00ED00E0A6ED0501C5
:10142000E143000001440000264400003E44000067
:101430006044000028ED00E029ED00E02AED00E026
:10144000D0ED00E080440000B3430000C84300003A
:10145000B7440000024A536943F0100353617047D8
:1014600000ED00E043B2002B08DB012200F01F007A
:1014700002FA00F0024A5B0942F82300704700BFFD
:1014800000E100E043B2002B0DDB012200F01F0061
:1014900002FA00F05B09044A203342F82300BFF34C
:1014A0004F8FBFF36F8F704700E100E043B2002B16
:1014B00001F10101A8BF03F160434FEA4111B8BF38
:1014C000054BC9B2ABBF03F5614300F00F0083F8D1
:1014D00000131954704700BF14ED00E02DE9F041EE
:1014E0008C18884617461E4604220A9B0999054611
:1014F00002F090F900220D49A4F1200323F0070324
:1015000021F00101C5E91322C5E916879961069901
:101510001E605960079999600899D9604FF08071F1
:10152000D961AB646A66BDE8F08100BF5730000046
:10153000014910220A60704710ED00E0404080F33E
:10154000118830BF704700BF404080F311884FF0D2
:1015500004007146014202D0EFF3098001D1EFF39C
:101560000880714601B5FFF7DBFE01BD38B50446C2
:101570000D4605281AD8DFE800F0031919131517CE
:101580000D4801F0F8FE00F047FEAA6901460B483D
:1015900001F0F1FE29462046BDE8384000F018B8B9
:1015A0000748EEE70748ECE70748EAE7014607483F
:1015B00001F0E1FEE7E700BFCB4400006945000011
:1015C000EB440000114500002B450000464500009B
:1015D000052810B50CD000F025FE60B100F022FE09
:1015E0000C490D4B002808BF19460C4801F0C3FEFA
:1015F000FFF7A4FFFCE700F025FE0028EED1084C21
:101600000848A16801F0B7FEA068BDE8104000F0EE
:101610000BB800BFA5450000A9450000BA45000071
:10162000DC180020DA45000038B505464FF02003ED
:10163000EFF3118483F31188BFF36F8F02F0CBF8BF
:101640000A4B9B68AB420BD1094B5A68C2F30802A4
:1016500012B92046FFF7DEFC5A6842F080525A6009
:101660002046BDE8384002F05CB800BFDC1800201E
:1016700000ED00E001B572B60B4A106A00281EBFEB
:101680000021116202F01AF862B6EFF30580A0F1B2
:1016900010004FEAC0000549014409C99847BDE858
:1016A0000140034800470000DC180020B03800006B
:1016B000E10F000001F06DFE202080F31188084842
:1016C0004FF40061401880F30988EFF31480022181
:1016D000084380F31488BFF36F8F00F007F8000011
:1016E000701E002030BFFFF7FDBF00BF114A08B5D4
:1016F000114B22F07F029A60BFF34F8FBFF36F8FC1
:10170000D3F8882042F4A002C3F888200B4A53681B
:1017100023F040435360BFF34F8FBFF36F8F00231D
:10172000E1EE103A00F004FB00F00CFBFFF766FC62
:1017300000F03AFB0000000000ED00E030EF00E0B8
:10174000BFF34F8F0549064BCA6802F4E0621343AA
:10175000CB60BFF34F8F00BFFDE700BF00ED00E09F
:101760000400FA0510B50E4B88B002930D4B0E4CD9
:1017700003930E4B08A8049302AB40F81C3D0C4A9F
:101780002346012100F002F900230793094B0121B0
:10179000E41A05A80593069400F002F908B010BDFC
:1017A00000000020000000000000012006000100F1
:1017B000000000200000002010B50B680C7A23F018
:1017C0001F0304F01F021A43CB68640923F01F03B0
:1017D000044943F0010343EA44038860CA600B6193
:1017E00010BD00BF90ED00E02DE9F04F8046894626
:1017F00014460027484D85B04F4507DA58F8273082
:101800005E68C6B31F2E05D86FF01504204605B0DC
:10181000BDE8F08FF206F7D1D3F800A01AF01F0F41
:10182000F2D1504601F09FFB834606EB0A000138D7
:1018300001F099FB8345E7D11BF1160FE4D0631E3D
:101840005B45E1DBC5F808B0E86858F82710C5F833
:1018500008B02E6920F01F00D1E900321A449842E6
:1018600046F01F0602F1FF3A18D1564505D15FFA3E
:101870008BF001F04DFE0137BEE7C5F808B0EB680C
:1018800022F01F0203F01F031A43EA60E0B201F0E6
:101890003FFE10F1160FB7D0441CECE7C5F808B0B6
:1018A0002A69013B23F01F0302F01F021343564530
:1018B000E0B22B61EBD001F02BFE10F1160FA3D09C
:1018C000C5F808B0EA689DF80830013E62F30403E9
:1018D0008DF808302B699DF808205B0863F34712E8
:1018E0008DF8082058F827200130D2E9003213443F
:1018F000009323F01F031E44A6EB0A06C4B226F091
:101900001F060F2C03963FF67FAF20466946FFF770
:1019100053FF0134AFE700BF90ED00E00522034B19
:101920005A60BFF34F8FBFF36F8F704790ED00E0A9
:10193000BFF35F8F0022014B5A60704790ED00E0CB
:1019400070B50E4D2E68102E15D80024FFF7F0FF4D
:101950000B4B0C4A1A63A64205D10B4B1E70FFF7C6
:10196000DDFF002070BD6968204601EB0411FFF720
:1019700023FF0134EFE74FF0FF30F3E7183B00009F
:1019800090ED00E0AAFF44001F19002010B5034CA1
:101990002278FFF729FF207010BD00BF1F1900201B
:1019A0002DE9F74F894607460026DFF89080DFF8DB
:1019B00090A0214C4E4519DAD7F804B0BBF1000FC6
:1019C00036D03B681846019301F0CDFA019B0546DD
:1019D0000BEB0300013801F0C6FA1423854203FB28
:1019E00006F306D06FF0150248F8032003B0BDE8F7
:1019F000F08F15F1160F48F80350F7D09AF8002031
:101A0000AA42F3DDA5604344A560E068197B60F35A
:101A1000040119732169187B490861F34710187391
:101A2000E26822F01F025A60226922F01F021A6146
:101A300001360C37BEE700BF90ED00E0F017002044
:101A40001F19002070B50C4B0E461C780546234626
:101A500000210A4A0F2B0BDD094B191D1868FFF7EF
:101A6000ABFE224631462846BDE87040FFF7BCBEBB
:101A7000936011610133EDE71F19002090ED00E044
:101A8000F0170020014B1860704700BF7826002037
:101A900070B54B79012B23D18B79032B20D1CC79D5
:101AA0002CB1012C1CD103689B681B79C3B10A7946
:101AB00012B1022A14D10E2247F6122603689B683F
:101AC0001D680B68B3426BD027D8B3F5965F61D021
:101AD00012D8B3F5167F4DD005D8B3F5967F74D0E4
:101AE0006FF0220052E0B3F5966F50D0B3F5166F49
:101AF000F6D14FF41D233FE0B3F5615F4CD004D81D
:101B0000B3F5165FECD1324B36E0B3F5964F45D0C6
:101B1000B3F5E14FE4D12F4B2EE0B3F5E13F48D0D0
:101B200012D84DF6C026B3423DD005D8B3F5164FB6
:101B3000D6D14FF41D031FE0B3F5614F36D0B3F596
:101B4000963FCDD1244B17E0B3F5E12F37D008D81D
:101B5000B3F5613F30D0214EB342C1D14FF0806325
:101B60000AE0B3F5612F2DD01D4EB342B8D14FF02E
:101B7000805301E04FF41C33C5F8243583682243B9
:101B800003C9C5F86C2583E80300002070BD4FF43D
:101B90009E23F1E7134BEFE7134BEDE7134BEBE716
:101BA0004FF40003E8E74FF46503E5E74FF46B03F8
:101BB000E2E74FF0EB73DFE74FF06C73DCE74FF0D9
:101BC000E863D9E74FF07063D6E74FF4A033D3E76B
:101BD0000050270000C0750000903A0190D003002B
:101BE00040420F0000B0130000F03A0000A04E0089
:101BF000026870B59268184B14684FF000528568FF
:101C000003219A601D260022C3F87412C3F87022C3
:101C1000C4F80C651C26C4F814654FF000669E607D
:101C2000C3F86C12C3F868221B23C4F808351A23C2
:101C30002946C4F81035FFF72BFF58B90823C4F81C
:101C400000351D440123C4F81001C4F83455C4F80C
:101C50003835236070BD00BF00258450014B1B68E0
:101C6000184700BF88260020014B1B68184700BF9B
:101C70008C260020024B0A461B680021184700BF33
:101C80009026002070B50026084B53F82040013004
:101C900053F82050A54200D870BD236820465B68E9
:101CA000984700B166600C34F4E700BF243D0000A3
:101CB000104B70B505461E460F4C9C4204D10E4C8D
:101CC000B44209D1002412E062681AB12268126895
:101CD000AA420CD00C34F0E763680BB90C34EFE780
:101CE00023682846196801F035FC0028F6D1204603
:101CF00070BD00BFFC2600209C26002008B50B4DBF
:101D00004FF02002EFF3118382F31188BFF36F8F3E
:101D100001F09EFD012104460228D8BF084601F0CB
:101D2000A7FD2C62FFF70AFCEAE700BFDC180020E1
:101D30000248034A0021121A01F05DBC0000002095
:101D40002C19002008B50648064A0749121A01F066
:101D500025FCBDE80840054A0549064801F01EBCBF
:101D600070260020102700205046000000000000D0
:101D7000504600000000002008B50220FFF782FF57
:101D8000074801F0F8FA0320FFF77CFF00F0A0FA03
:101D900001F0E2F8034A137B23F00103137308BD3B
:101DA000FF4500007018002080B5444BA2B083F3BB
:101DB00008880025E023424C012784F82230E5778B
:101DC00025766576A576E576636A3E4E43F4E02394
:101DD0006362636A43F400236362A563E3689BB2B2
:101DE00043F0BF6343F40833E360FFF733FBFFF7CF
:101DF0009FFB4FF0FF33A362E36207AB29466C22DF
:101E0000184601F0F8FBB06028468DF82970FFF7FE
:101E100039FF3846FFF736FF2B4C00F0F1F92B4B1A
:101E200074624FF48062CDE90473CDE90255CDE9C7
:101E30000055274B2749204600F030FA637B354692
:101E400023F0040213F01B0F627304D1A36913B9CA
:101E5000204600F003F9204B0026059301220F23B2
:101E60001E4FCDE90332CDE9016600961C4B4FF4BD
:101E7000A0721C49384600F011FA7B7BEF6023F01A
:101E800004037B73184BC5E90633E1EE106AFFF7D4
:101E900069FC0D48AC6001F033FB0D4B134A18464A
:101EA00082F3098863B64FF0000181F31188BFF314
:101EB0006F8F00210022002301F0CDF87026002052
:101EC00000ED00E0DC1800207018002044460000FF
:101ED000791D000030190020494600000418002038
:101EE000FD1C0000301D0020F4180020301D0020D3
:101EF00008B5FEF77BFE054B054A1B680021184418
:101F000010611846BDE8084001F0B2BC1419002069
:101F1000DC180020EFF305800D2809D828B1054B07
:101F2000586880F40060C0F3C02080F00100704762
:101F30000120FAE700ED00E0F8B50D464FF0200370
:101F4000EFF3118483F31188BFF36F8F4FF40041D7
:101F5000002700220B4E0C4BC1FB00671A61304674
:101F60004FF47A3200233946FEF7ECF8074B18603D
:101F7000074B1D60FFF7BCFF84F31188BFF36F8F21
:101F8000F8BD00BFFFE70300DC1800201419002093
:101F9000101900204FF02003EFF3118183F3118813
:101FA000BFF36F8F044B9A68D37B013BD37381F3EC
:101FB0001188BFF36F8F7047DC180020094B03F1C5
:101FC0002802824205D19B688B4202D14B7BDB0603
:101FD00007D1D1E900231A600A6853600023C1E9E0
:101FE00000337047DC18002038B50D4C024604F170
:101FF000280001F0B0FB054600B9E568A3684AB9BE
:102000005A7BD20606D1AA6922B9DA897F2A01D978
:10201000636238BD9D4201D0FFF76AFF6562F8E751
:10202000DC18002010B54FF02003EFF3118483F388
:102030001188BFF36F8F084B01209A68D37B01335F
:10204000D373FFF7D1FF84F31188BFF36F8FBDE81F
:10205000104001F076BB00BFDC180020F8B54FF04F
:102060002003EFF3118483F31188BFF36F8F164AB7
:10207000114651F8283F8B420CD05BB1D66A90F9DB
:102080000E5093F90E70AF420BDCB34202D01B68C6
:10209000002BF6D1D36A01604360D36A1860D06226
:1020A00005E05A68C0E900325A6810605860437B06
:1020B00043F0400343730020FFF796FF84F3118839
:1020C000BFF36F8FF8BD00BFDC180020F8B50446E1
:1020D0004FF02003EFF3118683F31188BFF36F8F66
:1020E000194F014607F128052846FFF767FFBB6A2D
:1020F0003A46AB420CD05BB1F86A94F90E1093F9F2
:102100000E708F420BDC834202D01B68002BF6D18D
:10211000D36A25606360D36A1C60D46205E05968A5
:10212000C4E9003159680C605C60637B906843F0DF
:1021300040036373031B58425841FFF755FF86F372
:102140001188BFF36F8FF8BDDC1800201449154AC1
:1021500010B58B681468A34203D1BDE81040FFF7A7
:10216000C7BE00241460104A1268BAB1DA897F2A07
:1021700014D80E4A93F90E40126894420EDB0C4AB2
:10218000126893420AD09A6942B90A69824203DC12
:102190001846FFF79BFFE0E7121A0A6110BD00BF67
:1021A000DC1800200C190020141900201019002040
:1021B0003C3D000038B504464FF02003EFF3118595
:1021C00083F31188BFF36F8F437B5A0607D501460F
:1021D0000948FFF7F3FE637B23F040036373074B6B
:1021E0009868031B58425841FFF7FEFE85F311889B
:1021F000BFF36F8F38BD00BF04190020DC1800202A
:102200000021044B084603F12802C3E90A22FFF724
:1022100093BE00BFDC180020014B9868704700BFD8
:10222000DC180020EFF305800D2807D838B1044BE7
:10223000586880F40060C0F3C020704701207047E8
:1022400000ED00E0024B9B68187B00F00100704736
:10225000DC18002010B502464FF02003EFF3118484
:1022600083F31188BFF36F8F437B590704D484F342
:102270001188BFF36F8F10BD23F00403437301F087
:10228000A1FA10B11046FFF7E9FE2146BDE8104063
:10229000014801F037BA00BF2019002030B587B0DF
:1022A0000E9D044604950D9D03950C9D02950B9D76
:1022B00001950A9D0095FFF711F9044B9B6813B92E
:1022C000236607B030BD1B6EFAE700BFDC180020A4
:1022D0002DE9F04F284E294DB04687B0B54205F1A3
:1022E00030040FD3FFF756FE4FF400490027234C6C
:1022F000234EDFF890A0444521D307B0BDE8F04F4E
:10230000FFF790BE54F8043C059354F8103C049336
:1023100054F8143C039354F8183C029354F81C3CB2
:10232000019354F8203C009354E90A2354E90C012A
:10233000FFF7B4FF54F8303CDD642546CEE7616A10
:102340004B1C04D0256821B92846FFF783FF3034A1
:10235000D1E7B346BC46C9FB01BC4FF47A32002337
:1023600058466146FDF7EEFE5146421C05F1180045
:1023700000F052F8EBE700BFFC260020FC2600200E
:10238000FFE7030063370000034B1B680BB9FEF740
:102390002DBC0020704700BF18190020036840B111
:1023A000084A5268904204D01BB19A6881680A4476
:1023B0009A604268136003685A600023C0E90033E2
:1023C000704700BF9426002038B5104B1B78002BB7
:1023D0000F4B18BF4FF0FF301C6808BF6FF0004074
:1023E0009C420AD04CB1A568FFF7CEFF281A0028FE
:1023F0000ADBA468FFF7C8FF201A064B1B6913B15C
:102400009842A8BF184638BD0020F6E720190020E2
:1024100094260020DC18002070B504461646C160E2
:102420004FF02003EFF3118583F31188BFF36F8F13
:10243000FFF7AAFF012EACBF80190130174BA06037
:102440001A689A4201D05E6832B95A6823606260A5
:102450005A6814605C600BE09068A168884216DDE1
:10246000411A91605168C4E9002151680C605460C0
:102470001A689A4206D0944204D1FFF7A5FF0021C2
:10248000FEF77CFB85F31188BFF36F8F70BD091ACF
:102490009642A160D9D01268D6E700BF94260020EA
:1024A0002DE9F04B0446FFF751FE4FF02003EFF308
:1024B000118583F31188BFF36F8F214F214EB846EA
:1024C000DFF884903460D9F8004032684C45D7E991
:1024D00000BC05D024B1A368934214DD9B1AA3600D
:1024E00000241BEB02004CEBE271C8E900013460F0
:1024F000FFF76AFF2146FEF741FB85F31188BFF322
:102500006F8FBDE8F08B1BEB03004CEBE371D31A2C
:1025100033600023C7E90001A3602046FFF73EFFB8
:1025200085F31188BFF36F8FE36898474FF020035E
:10253000EFF3118583F31188BFF36F8FC3E700BFFB
:1025400000000020181900209426002038B5074C00
:10255000074DAC4201D3002038BD04F114032046DE
:10256000C4E9053300F02CFD1C34F2E7FC26002002
:10257000FC2600202DE9F04192B00592002966D09A
:10258000002B64D0002A62D00F461D460446E0B1FD
:1025900006AE3046042100F0BFF808A8282100F05C
:1025A000BBF808A800F066F8002841D020464FF498
:1025B000BF51FFF75FFB4FF0FF3530460421FFF7B7
:1025C00059FB284612B0BDE8F0814FF4BF510120FD
:1025D000FFF744FB8046002839D006AE3046042180
:1025E00000F09AF808A8282100F096F808A800F052
:1025F00041F80246002834D107ABCDE902800093B0
:10260000019508A905AB304600F0A8FB48BB2A6835
:10261000059B9A421ED94FF0FF354FF4BF514046FB
:10262000FFF728FB002CC8D14046FFF71DFBC4E78D
:1026300007ABCDE9024002460093019508A905AB1E
:10264000304600F08BFBA0460028AFD1DFE74FF00B
:10265000FF35B6E707993846083100F05BF80025EA
:10266000DBE74FF4BF514046FFF704FB4FF0FF3567
:10267000DAE700BF1C2330B583B002A941F8043D5E
:10268000044600F04DF80546D8B9019B1C2B1BD120
:10269000D4E9003201210033E16118BF01230AB1FE
:1026A00043F00203A26832B9E268AAB9C4E9083269
:1026B0003BB90D4D09E0E26843F0040362B9C4E997
:1026C0000832284603B030BD084D20461C2100F0DA
:1026D00023F8284603B030BD0022284643F0080303
:1026E000C4E9083203B030BD0E0CF000370CF00026
:1026F000BFF34F8F0549064BCA6802F4E0621343EB
:10270000CB60BFF34F8F00BFFDE700BF00ED00E0DF
:102710000400FA0500F02BBF0A46002100F06BBF51
:1027200018B111B10B681C2B01D0012070474FF478
:102730007F033A4AD3F8101C91425AD0D3F8102C98
:10274000013256D0D3F8102C4FF47F030260D3F837
:10275000141C334A91425ED0D3F8142C01325AD063
:10276000D3F8142C4FF47F034260D3F8182C12F5E1
:10277000947F4DD0D3F8182C013249D0D3F8182CBF
:102780004FF47F038260D3F81C1C264A91423CD050
:10279000D3F81C2C013238D0D3F81C2C4FF47F0313
:1027A000C260D3F8002C70322DD0D3F8002C013247
:1027B00029D0D3F8002C4FF47F030261D3F8042C06
:1027C000AF321ED0D3F8042C01321AD0D3F8042C27
:1027D0004FF47F034261D3F8081C134A91420BD097
:1027E000D3F8082C013207D0D3F8083C83610020CD
:1027F000704740F6FC02A7E740F2373383610020C0
:1028000070475122E4E79022D5E742F60412C5E76B
:1028100040F6D862B4E742F2D002A3E7FCF8FFFF2B
:10282000D020FFFF0429FFFF37F3FFFFA8B32DE9F6
:10283000F0414C1EB4F5047F2CD25BB352B34FF081
:10284000000CC900E646654664464F1E03F1FF389A
:102850000CE0AB4216D08E4501D10CF1010CA8451D
:1028600016D00134BC4205F1010518D8610950F8B1
:10287000211004F01F06F1401F2E18BF01F00101C6
:10288000002CE6D10025A8458E464FF0010CE8D17A
:102890006245E6D20348BDE8F08102487047002057
:1028A000BDE8F081370CF1002DE9F04F8FB00D46F7
:1028B000DDE919418346002959D129690391002195
:1028C00004F5C1601860189B1960002A00F022818D
:1028D000814A824B11686A6A1B689A4257D10A2959
:1028E00055D19BF8033006930399042308467C4A8C
:1028F0000293A2FB00029208CB0002EB420204F515
:10290000C260A1EB4202013BDFF8D091DFF800A2E8
:10291000049000920593189B039C1C60002C00F00F
:10292000CC800026049F00F0F1FA00230793069B59
:10293000BBF1000F3AD0002D34D053BB5B0006939F
:10294000BBF1000F36D0002D34D0E3B106A92846E4
:1029500000F0CCFA002800F07D81624B984212D042
:10296000009000F0D3FA00980FB0BDE8F08F4FF45C
:102970007F01D1F80C0C01300CBF4FF40471D1F879
:102980000C1C03919BE72B6A73B95648E8E756483D
:10299000E6E706A9284600F0A9FA68B1534B984229
:1029A000DED0069B082BC9D15148D9E7082BFBD0B4
:1029B0005B0006934F48D3E72946069800F078FA63
:1029C0000028EBD1069B082B00F00E81042B00F0B1
:1029D0003181A3F10203B3FA83F35B09019301236D
:1029E0001946454A136042F8843C434B19606B6AB0
:1029F000C9F80030D9F800206B6A9A42F5D14FF03F
:102A000000084FF0FF30CAF8008000F027FA3B4A78
:102A10003B4B40461A6000F02FFA0A2201983949D0
:102A20002D4B08601A602A69A8F15538A8FB0212DC
:102A30006B6A120903EB4303DB0303FB02F3324A25
:102A40009B0913600123CAF800300699DBF80020C7
:102A50000B0243EA016322F07F421343CBF80030BC
:102A600007A800F015FA002898D1284BA8FB0428E5
:102A70001A681433089253F8102CB6EB980F099289
:102A800053F80C2C0A9253F8082C0B9253F8042C90
:102A90000C921B680D9301D1009B9BB938461822FC
:102AA00008A9FFF737FE183C18370136002C7FF4D1
:102AB0003AAF049B002B40F09A800023189A1360D1
:102AC000069B6FE71A46384608A9E41AFFF722FE6C
:102AD000009B1F44E9E700BF381184503011845037
:102AE000ABAAAAAA310CF100300CF100020CF100E3
:102AF000320CF100350CF100C4118450FEFFFF0FC1
:102B0000001184500C118450D81184501411845039
:102B10002C118450BBF1000F3FF44CAF002D3FF45B
:102B200049AF01230EA941F8203DCBF800202846EB
:102B300000F0DCF900287FF413AF2946069800F076
:102B4000B7F900287FF40CAF069F082F00F0EB8048
:102B5000042F00F0EA80A7F10207B7FA87F77F0990
:102B600001221646734B74491A6018460A60943B5A
:102B700006606A6A1A6019686A6A9142F8D14FF071
:102B800000086E4B4FF0FF30C3F8008000F066F98C
:102B90006B4B6C4A40461A6000F06EF90A226A4993
:102BA0006A4B0F601A601A992B6901296A6A00F052
:102BB000B1806749A1FB03131B09012102EB42020B
:102BC000D20303FB02F3634A9B0913605B4B19605A
:102BD0000699DBF800200B0243EA016322F07F42F2
:102BE0001343CBF800307FE603230193F7E6039B02
:102BF000B3F5047F3FF661AFDDE9047C2046234650
:102C00006E6904E0012001336345144615D85A0962
:102C100057F8222003F01F01CA401F2918BF02F0F5
:102C20000102002BEED0A242ECD101308642EAD163
:102C300049480BE002230193D1E64FF48063DDE9BC
:102C40000310AA69FFF7F2FD00285DD00023189A4F
:102C50001360A3E62946069800F02AF900287FF4BD
:102C60007CAE069C082C51D0042C51D0A4F1020457
:102C7000B4FA84F4640901231E4619462D4A1360F0
:102C800042F8843C2B4B19606B6AC9F80030D9F8C4
:102C900000206B6A9A42F5D100274FF0FF30CAF846
:102CA000007000F0DBF8264B264A38461A6000F028
:102CB000E3F80A222449254B0C601A602A6924494A
:102CC0006B6AA1FB021203EB43031209DB0303FB54
:102CD00002F3204A9B091360CAF80060069BDBF8E8
:102CE00000101A0242EA036321F07F421A43130ADA
:102CF00003F47F03134323F07F43CBF80030029BA0
:102D0000013B02937FF407AE002029E60324B2E7DB
:102D10000224B0E74FF47F03D3F80C1C013106D036
:102D2000D3F80C3C45E703271AE7022718E71623D8
:102D300043E700BFC4118450401184502C118450CB
:102D400000118450FEFFFF0F0C1184503811845085
:102D5000ABAAAAAAD8118450360CF1002DE9F04391
:102D60001B4C85B00746DDE90D56884620684FF0BC
:102D7000FF31914600F036F828BB002000F036F80D
:102D8000E8B90023CDE9005602934A464146384649
:102D90000C9BFFF789FD0546012000F027F850B98C
:102DA000206800F021F810B10A48FFF7A1FC28467E
:102DB00005B0BDE8F0830848FFF79AFCF0E7074844
:102DC000FFF796FCDDE70648FFF792FCD5E700BF6A
:102DD00024190020983D0000783D0000583D000077
:102DE000403D00000020704700207047194B82B022
:102DF000D3E8AF2F0192019A98B90132D3E8EF1FBF
:102E0000C3E8E02F0028F9D18A42F7D1BFF35F8FE2
:102E1000019B1BB90122104BC3F80025002002B012
:102E20007047002AFAD0019A012A0ED0019A013A7D
:102E3000D3E8EF1FC3E8E02F0028F9D18A42F7D189
:102E4000BFF35F8F002002B070470021024AC2F832
:102E50000015EBE72819002000008450430503D536
:102E60004FF0FF32024B1A60024B1860704700BFF0
:102E700008118450081A8450014B1860704700BF35
:102E8000041A845008B100F04FB84FF47500704731
:102E900008B501464FF48060FFF7F4FF00230249B4
:102EA000024A0B60136008BDC81184502C11845075
:102EB0000138072815D8DFE800F0100C14081414A6
:102EC0001404CB6800204B6270478B6800204B6273
:102ED00070474B6800204B6270470B6800204B62C4
:102EE00070470148704700BF310CF1000B6802E0E9
:102EF000082B0B6006D8026A13424FEA4303F7D04F
:102F00000020704700487047310CF100002304494D
:102F1000044A0B604FF480601360FFF79FBF00BF4F
:102F20002C118450C4118450024607480368134290
:102F3000FCD021B1054B06481B680B600360054BB4
:102F400000201A60704700BF001A8450041184509A
:102F500008118450081A845008B5FDF7FBFEBDE83F
:102F60000840FDF78BBE40E800F313F4803FD8B271
:102F700008BF6FF01500704770B50C254D43C6684B
:102F800090F90B0074198842A8BF21464FF0200425
:102F900092FBF4F4B8BF715902F01F0001EB8401F9
:102FA000196070BD07B501ABFFF7E6FF0123019A79
:102FB00003FA00F013680343136003B05DF804FBE9
:102FC0002DE9F8430446FF2200214FF00C0E436820
:102FD000058900685D4394F80AC02844E2728C4574
:102FE00005DC00252389AB4222DCBDE8F883B5FB74
:102FF000F3F20EFB01F7D4F80C801F2A08EB07064A
:10300000C8BF1F324FEA930306F10409C8BF520933
:1030100003F10303C6E9019923F00303D4BFE1726E
:1030200048F8070001F10101C8BF00EB8200D6E7B4
:103030006268E3686A4320681E1D811886509A689A
:1030400020464A609A68116099602A460021FFF77D
:10305000A9FF0135C6E708B50446084611461A46D9
:10306000A047FFF7D9F8FEF7DFFA0020704770B5E8
:103070000D4604464520A04729465220A047294630
:103080002346BDE87040522018472DE9F04F002735
:1030900005460E4692461C464FF0FF39B846BB46E1
:1030A00089B09AF8000010B909B0BDE8F08FBBF103
:1030B000000F07D1252800F04E813146A8470AF1BC
:1030C000010AEEE7642868D01AD839280BD83128CD
:1030D0005AD22D2800F04681302846D0252808D124
:1030E0003146A8477AE0582800F0B480632800F001
:1030F0002C8131462520A84731469AF80000F0E798
:10310000702800F09D800DD8692846D06C2803D126
:103110006C2F26D14C27D2E76828EAD1682F20D11E
:103120004827CCE7752870D017D87328E1D12268DA
:1031300004F1040B11460C4614F8010B002840F072
:10314000F980B8F1030F40F013818C1AA9EB040445
:10315000002C00F3F5805C4640E078287AD07A288D
:10316000C7D1002FC5D10746A9E7B9F1000F0EDA84
:10317000B8F1000F00F0F980A0F13009B8F1000FAC
:1031800008BF4FF002089AE7B9F1000FF4DB0A22FA
:1031900002FB0909A9F13009F0E77A2F03D1D4F82D
:1031A00000B004341EE06C2FF9D04C2FF7D14FF053
:1031B000000C4FF0FF3B073424F0070303F1080431
:1031C000D3E9002312F1004043F100018C4508BF10
:1031D000834506D231462846FFF749FF4FF0000BE2
:1031E0006DE79346BBF1000F06DA31462D20A84764
:1031F000CBF1000B09F1FF3943465A46CDF8009058
:1032000031462846FDF70CFAE8E77A2F02D122680A
:10321000043411E06C2FFAD04C2FF8D100214FF07C
:10322000FF30073424F0070303F10804D3E9002337
:10323000994208BF9042CDD3CDF800904346DFE7D6
:1032400031463020A84731467820A8474FF008097A
:103250004FF001089AF80020702A05D12368043441
:103260000493002302930CE06C2FF7D04C2FF5D180
:10327000073424F00702136802F10804049353682A
:10328000029300221023039205924022043A0299ED
:103290000498C2F1200CA2F1200ED04001FA0CFCDF
:1032A00040EA0C0021FA0EFE40EA0E0010F00F007A
:1032B00008D1059901B942BB4FF0300C08E0CDF8B8
:1032C00014B0E3E709288CBF4FF0570C4FF0300CD7
:1032D00031466044CDE90523A847039B013303939E
:1032E000DDE90523002AEAD1B8F1030F7FF476AFB8
:1032F000039BC3EB490BBBF1000F7FF76FAF314668
:103300002020A8470BF1FF3BF5E7591E9945069190
:1033100007DBB8F1010F06D1314630200792A847EC
:10332000079A069BB2E7B8F1020FFAD1079231462D
:103330002020F4E731460292A8472146029AFAE695
:1033400031462020A847013C02E73146206804F1BD
:10335000040BA847FFE65F46D8464FF0FF394FF011
:10336000010BACE64FF00308A9E64FF00108A6E612
:103370005C468346A3E60FB407B504A951F8040BD5
:103380000191FDF79FF903B05DF804EB04B07047BD
:103390007047FDF7BBB94FF0502330B5D3F8085153
:1033A000D3F80423D3F8004102F00102D3F8041348
:1033B000D3F8040115B10025C3F80851B4B14FF09A
:1033C00050230024C3F8004122B14FF050230122C2
:1033D000C3F8082348B100224FF05023C3F804215A
:1033E0008A0702D50222C3F8082330BD002AF1D093
:1033F0004FF05023D3F80C3403F00113B3F1011F45
:10340000E8D1E2E708B5002201210520FEF74EF8D9
:103410000520FEF727F8002008BD70477047704769
:1034200008B50120FDF72EFABDE808407046714648
:1034300072467346B7EE000AF7EE000AB7EE001ABE
:10344000F7EE001AB7EE002AF7EE002AB7EE003AC0
:10345000F7EE003AB7EE004AF7EE004AB7EE005A30
:10346000F7EE005AB7EE006AF7EE006AB7EE007AA0
:10347000F7EE007A8EF3008C10B4F1EE10CA4FF61E
:103480006074C0F6FF740CEA040CE1EE10CA10BCC4
:10349000F4467447FEF758B843B2A9B1002B12DBCB
:1034A00001215B099B0003F1604303F56143D3F8FD
:1034B000802200F01F0001FA00F022EA0000C3F8A9
:1034C0008002D3F880327047002BFCDB01225B09BD
:1034D0009B0003F1604303F56143D3F8801200F0D1
:1034E0001F0002FA00F00843E9E701460068FEF712
:1034F0003DB808B5FEF7F6F8BDE80840FDF770BD29
:1035000007B5002101A8FEF79DFA03B05DF804FBA2
:1035100030B54B6885B00C689DF808200D89009483
:10352000498924F01F04013B234465F3040261F33D
:10353000471223F01F030F288DF808200393044639
:1035400005D86946FEF738F9204605B030BD6FF062
:103550001504F9E70138013910F8013F11F8012F7E
:10356000934202D1002BF7D11A46981A7047431A9A
:10357000934210B500EB020308D3024601399A4288
:103580000BD011F8014F02F8014BF8E70A4412F88A
:10359000014D8A4203F8014DF9D110BDF0B581EA21
:1035A0000004A50703460BD0013B0A4491421DD1FC
:1035B000F0BD002AFCD011F8014B013A03F8014B91
:1035C0009C07F6D10C461D1F8F183E1B032E08D8F2
:1035D0006FF00305940805FB0422A4002344214452
:1035E000E2E754F8046B45F8046FEEE711F8014B7D
:1035F00003F8014FDAE70346F0B5C9B29C070FD1D3
:103600001D4641EA012444EA04449F187E1B032E10
:103610000CD8940803EB840413449C4209D1F0BDF8
:10362000002AFCD003F8011B013AE7E745F8044BF8
:10363000ECE704F8011BF0E74FF0FF3070470B4652
:10364000826892E8030083E8030000207047036863
:103650009B681B68D3F8240118B1D3F88004C3F821
:1036600080047047036882689B681B68D3F8100168
:1036700038B1127A00200A700122C3F810011A60D2
:1036800070474FF0FF30704782B002AA02F8011D68
:10369000002103689B681B68C3F82011C3F8442508
:1036A0000122C3F848259A60D3F820110029FBD0E5
:1036B000DA6002B07047002070477047FFF7AEBE77
:1036C000437BDB0603BF8069B0FA80F0400900202D
:1036D000704738B504464FF02003EFF3118583F3AC
:1036E0001188BFF36F8F01468068FEF767FC637B2C
:1036F00023F00203637385F31188BFF36F8F0023F8
:10370000A36038BD08B539B9FEF704FC20B1BDE8A7
:1037100008400846FDF77EBC81F31188BFF36F8F28
:1037200008BD08B5024638B9FEF7F4FB20B1BDE884
:1037300008401046FDF76EBC82F31188BFF36F8F0F
:1037400008BD4FF02003EFF3118083F31188BFF31E
:103750006F8FFFF7E6BF0368984214BF184600203A
:10376000704750F8103C70B50446A0F11805CBB175
:103770004FF02003EFF3118683F31188BFF36F8FAF
:10378000294650F8100CFEF719FC14F80B3C23F0F6
:10379000020304F80B3C86F31188BFF36F8F0023FC
:1037A00044F8103C14F80B3C284623F0140304F8AA
:1037B0000B3CFFF785FF20B12846BDE87040FEF7BF
:1037C0004DBC70BD437BDB0603BF8069B0FA80F05F
:1037D000400900207047036D10B5044603B19847B7
:1037E0002046FFF7EFFF38B12046FEF7E3FC637B8E
:1037F00043F00803637310BD637B9B0702D520462B
:10380000FFF767FFA369002BF1D004F1180000F067
:1038100009F8ECE70373002342738173C373C0E9B3
:103820000633704710B54FF02002EFF3118482F396
:103830001188BFF36F8F03683BB1FEF7AFFD002027
:1038400084F31188BFF36F8F10BD6FF01500F7E799
:1038500010B54FF02003EFF3118483F31188BFF309
:103860006F8FFEF7B1FD84F31188BFF36F8F10BD2A
:1038700070B504460E464FF02003EFF3118583F335
:103880001188BFF36F8FFEF79FFDA04205DD012871
:1038900003DD31462046FDF771F985F31188BFF34A
:1038A0006F8F70BD7047FFFF3CC9FF7F01000000B4
:1038B0000000000095340000000000009534000076
:1038C0000000000095340000000000009534000066
:1038D0000000000095340000000000009733000055
:1038E0000000000095340000000000009534000046
:1038F0000000000095340000000000009534000036
:103900000000000095340000000000009534000025
:103910000000000095340000000000009534000015
:103920000000000095340000000000009534000005
:1039300000000000953400000000000095340000F5
:1039400000000000953400000000000095340000E5
:10395000000000009534000000000000B10A0000E3
:1039600000000000953400000000000095340000C5
:1039700000000000953400000000000095340000B5
:1039800000000000953400000000000095340000A5
:103990000000000095340000000000009534000095
:1039A0000000000095340000000000009534000085
:1039B0000000000095340000000000009534000075
:1039C0000000000095340000000000009534000065
:1039D0000000000095340000000000009534000055
:1039E0000000000095340000000000009534000045
:1039F0000000000095340000000000009534000035
:103A00000000000095340000000000009534000024
:103A10000000000095340000000000009534000014
:103A20000000000095340000000000009534000004
:103A300000000000953400000000000095340000F4
:103A400000000000953400000000000095340000E4
:103A500000000000953400000000000095340000D4
:103A600000000000953400000000000095340000C4
:103A700000000000953400000000000095340000B4
:103A800000000000953400000000000095340000A4
:103A90000000000095340000000000009534000094
:103AA0000000000095340000000000009534000084
:103AB0000000000095340000153E0000E5060000FF
:103AC00000000000153E0000F508000000000000A6
:103AD000EF3D00000534000000000000F93D00004B
:103AE0000534000000000000033E0000FD0A000055
:103AF00000000000153E0000411900000000000019
:103B0000E83D0000F11B00001C3D0000153E0000D8
:103B10004D2500000000000002000000203B0000D6
:103B200000000000B03D000006000000E0FF0F00B4
:103B300000000020B83D000021000000E0FF002050
:103B4000850900000000000000000000ED090000F1
:103B5000110900000000000017010000070100002B
:103B60000701000007010000070100000701000035
:103B70000701000007010000070100000701000025
:103B80000701000007010000070100000701000015
:103B90000701000007010000070100000701000005
:103BA00007010000070100000701000007010000F5
:103BB00007010000070100000701000007010000E5
:103BC00007010000070100000701000007010000D5
:103BD0000701000007010000953F000042010000BE
:103BE0009C3F000005010000A63F000015010000F9
:103BF000AF3F000039010000B83F0000090100009C
:103C0000C33F00000A000000CE3F00000A01000090
:103C1000D83F00000B010000E23F00000F01000050
:103C2000ED3F000010010000F83F0000110100000E
:103C3000034000000E0100000D40000021010000C3
:103C400016400000220100001F4000002301000078
:103C50002840000024010000314000002A0100003B
:103C6000394000003A010000414000002C010000F2
:103C7000494000001C010000524000001D010000EE
:103C80005B40000031010000170100001701000037
:103C900017010000170100001701000017010000C4
:103CA00017010000170100000701000007010000D4
:103CB00007010000070100000701000007010000E4
:103CC00007010000070100000701000007010000D4
:103CD00007010000070100000701000007010000C4
:103CE00007010000070100000701000007010000B4
:103CF00007010000070100000701000007010000A4
:103D00000701000007010000653600008936000049
:103D10004F360000911A00003F360000008000502E
:103D2000010000009C260020F0260020FC26002038
:103D3000FC260020FC260020F5FFFFFF04180020D1
:103D40004661696C20746F206163717569726520CA
:103D50006D757465780A00004661696C20746F2087
:103D6000696E63726561736520504D20636F756E77
:103D70007465720A000000004661696C20746F204F
:103D8000646563726561736520504D20636F756E65
:103D90007465720A000000004661696C20746F202F
:103DA00072656C65617365206D757465780A0000D5
:103DB000464C4153485F30005352414D5F300046FE
:103DC00061696C656420746F207265626F6F743A0C
:103DD000207370696E6E696E6720656E646C6573C2
:103DE000736C792E2E2E0A00554152545F300043D9
:103DF0004C4F434B5F33324B00434C4F434B5F318F
:103E0000364D007379735F636C6F636B005365634A
:103E10007572650909004E6F6E2D53656375726585
:103E200009004E6F6E2D53656375726500466C61B7
:103E3000736820726567696F6E0909446F6D616907
:103E40006E09095065726D697373696F6E730A004C
:103E5000253032752030782530357820307825307F
:103E600035782009002563004E6F6E2D73656375EC
:103E700072652063616C6C61626C65207265676954
:103E80006F6E203020706C6163656420696E2066FF
:103E90006C61736820726567696F6E202564207796
:103EA0006974682073697A652025642E0A0053526C
:103EB000414D20726567696F6E0909446F6D6169D4
:103EC0006E09095065726D697373696F6E730A00CC
:103ED00025303275203078253035782030782530FF
:103EE000357809005065726970686572616C0909FE
:103EF000446F6D61696E09095374617475730A00CA
:103F000025303275202573090925730009534B4963
:103F1000500A00094552524F520A00094F4B0A00FD
:103F200053504D3A204E5320696D6167652061748E
:103F300020307825780A0053504D3A204E53204DBA
:103F4000535020617420307825780A0053504D3A40
:103F5000204E5320726573657420766563746F72AA
:103F600020617420307825780A0053504D3A207033
:103F700072657061726520746F206A756D7020744F
:103F80006F204E6F6E2D53656375726520696D618C
:103F900067652E0A004E52465F5030004E52465F13
:103FA000434C4F434B004E52465F52544331004EF8
:103FB00052465F4E564D43004E52465F5541525455
:103FC0004531004E52465F554152544532004E52E3
:103FD000465F5457494D32004E52465F5350494D4B
:103FE00033004E52465F54494D455230004E5246C2
:103FF0005F54494D455231004E52465F54494D453C
:104000005232004E52465F5341414443004E5246A5
:104010005F50574D30004E52465F50574D31004E65
:1040200052465F50574D32004E52465F50574D3307
:10403000004E52465F495043004E52465F564D4334
:10404000004E52465F465055004E52465F4547551A
:1040500031004E52465F45475532004E52465F474B
:1040600050494F544531002A2A2A2A2A20425553C2
:10407000204641554C54202A2A2A2A2A0A00202068
:10408000537461636B696E67206572726F720A00A8
:1040900020205072656369736520646174612062D9
:1040A0007573206572726F720A0020204246415279
:1040B00020416464726573733A20307825780A0071
:1040C0002020496D70726563697365206461746155
:1040D00020627573206572726F720A002020496E2B
:1040E000737472756374696F6E2062757320657284
:1040F000726F720A002A2A2A2A2A204D5055204619
:1041000041554C54202A2A2A2A2A0A002020537476
:1041100061636B696E67206572726F722028636FCE
:104120006E746578742061726561206D696768746A
:10413000206265206E6F742076616C6964290A00C4
:104140002020556E737461636B696E6720657272AF
:104150006F720A00202044617461204163636573BB
:10416000732056696F6C6174696F6E0A0020204D70
:104170004D46415220416464726573733A20307831
:1041800025780A002020496E737472756374696F14
:104190006E204163636573732056696F6C61746947
:1041A0006F6E0A002020466C6F6174696E672D7017
:1041B0006F696E74206C617A792073746174652004
:1041C000707265736572766174696F6E2065727264
:1041D0006F720A002A2A2A2A2A205345435552453B
:1041E000204641554C54202A2A2A2A2A0A002020F7
:1041F000416464726573733A20307825780A002030
:1042000020496E76616C696420656E7472792070E5
:104210006F696E740A002020496E76616C696420B3
:10422000696E74656772697479207369676E617409
:104230007572650A002020496E76616C696420659C
:104240007863657074696F6E2072657475726E0A3A
:104250000020204174747269627574696F6E2075F4
:104260006E69742076696F6C6174696F6E0A0020E4
:1042700020496E76616C6964207472616E73697432
:10428000696F6E0A0020204C617A79207374617422
:104290006520707265736572766174696F6E0A006D
:1042A00020204C617A792073746174652065727284
:1042B0006F720A002A2A2A2A2A205553414745208C
:1042C0004641554C54202A2A2A2A2A0A00202044F2
:1042D00069766973696F6E206279207A65726F0AF8
:1042E000002020556E616C69676E6564206D656D98
:1042F0006F7279206163636573730A0020205374C1
:1043000061636B206F766572666C6F772028636FD0
:104310006E746578742061726561206E6F742076AA
:10432000616C6964290A0020204E6F20636F7072EF
:104330006F636573736F7220696E737472756374E3
:10434000696F6E730A002020496C6C6567616C2090
:104350006C6F6164206F66204558435F5245545529
:10436000524E20696E746F2050430A002020496C21
:104370006C6567616C20757365206F662074686575
:1043800020455053520A002020417474656D7074AA
:1043900020746F206578656375746520756E64653B
:1043A00066696E656420696E737472756374696F93
:1043B0006E0A0052657365727665642045786365A0
:1043C0007074696F6E20280053707572696F757311
:1043D00020696E746572727570742028495251207C
:1043E0000020205320696E737472756374696F6E58
:1043F00020616464726573733A2020307825780AEE
:1044000000524554544F4241534520646F65732018
:104410006E6F74206D61746368204558435F524528
:104420005455524E0A002A2A2A2A2A204841524428
:10443000204641554C54202A2A2A2A2A0A002020A4
:10444000427573206661756C74206F6E20766563AB
:10445000746F72207461626C6520726561640A0019
:1044600020204661756C7420657363616C617469AA
:104470006F6E20287365652062656C6F77290A006E
:104480002A2A2A2A2A204465627567206D6F6E6980
:10449000746F7220657863657074696F6E20286E22
:1044A0006F7420696D706C656D656E74656429202C
:1044B0002A2A2A2A2A0A002A2A2A2A2A2025732076
:1044C000256429202A2A2A2A2A0A002A2A2A2A2A6C
:1044D00020486172647761726520657863657074E5
:1044E000696F6E202A2A2A2A2A0A002A2A2A2A20C2
:1044F0004B65726E656C20416C6C6F636174696FA3
:104500006E204661696C75726521202A2A2A2A0A62
:10451000002A2A2A2A2A204B65726E656C204F4F8A
:10452000505321202A2A2A2A2A0A002A2A2A2A2AF9
:10453000204B65726E656C2050616E696321202A84
:104540002A2A2A2A0A002A2A2A2A20556E6B6E6FE6
:10455000776E20466174616C204572726F722025FF
:104560006421202A2A2A2A0A0043757272656E7411
:1045700020746872656164204944203D2025700ADA
:104580004661756C74696E6720696E7374727563C9
:1045900074696F6E2061646472657373203D2030AE
:1045A0007825780A0049535200657373656E746903
:1045B000616C2074687265616400466174616C208E
:1045C0006661756C7420696E2025732120537069B3
:1045D0006E6E696E672E2E2E0A00466174616C2025
:1045E0006661756C7420696E207468726561642000
:1045F0002570212041626F7274696E672E0A002A4D
:104600002A2A2A2A20426F6F74696E67205A6570C1
:10461000687972204F53206275696C642076312E60
:1046200031342E39392D6E6373322D3439352D677F
:10463000613839333361326561643031202A2A2A86
:104640002A2A0A006D61696E0069646C65000000C9
:104650006B3000000090D0033936000000C201002A
:104660000001030000000000B7360000BB36000068
:10467000F73500009426002094260020B83A000068
:1046800000000000000000000C3B000000000000E3
:1046900000000000F43A00000000000000000000EC
:1046A000D03A0000403B000000000000DC3A00006F
:1046B0004C3B000000000000003B0000083D0000F3
:1046C0007C260020C43A000000000000000000002A
:1046D000E83A00000000000000000000FC26002076
:1046E000FC26002000000000000000000F00000079
:1046F000FFFFFFFFFFFFFFFFFFFFFFFFFFFFFFFFCA
:1047000000000000000000000000000000000000A9
:104710000000000000000000000000000000000099
:104720000000000000000000000000000000000089
:107FE0007FE97FE9F8F7B8BF7FE97FE9FBF718BAC7
:107FF0000000000000000000000000000000000081
:10C000009039022011E60000031C020075E40000D4
:10C0100075E4000075E4000075E4000075E40000BC
:10C0200075E4000075E4000075E40000D9DF00004D
:10C0300075E4000075E4000029DF0000F1DB00007A
:10C04000D1E50000D1E50000D1E50000D1E5000018
:10C05000D1E50000D1E50000D1E50000D1E5000008
:10C06000D1E50000D1E50000D1E50000D1E50000F8
:10C07000D1E50000D1E50000D1E50000D1E50000E8
:10C08000D1E50000D1E50000D1E50000D1E50000D8
:10C09000D1E50000D1E50000D1E50000D1E50000C8
:10C0A000D1E50000D1E50000D1E50000D1E50000B8
:10C0B00051FC00001B230200D1E50000D1E5000087
:10C0C000D1E50000D1E50000D1E50000D1E5000098
:10C0D000D1E50000D1E50000D1E50000D1E5000088
:10C0E000D1E50000D1E5000039240200D1E50000CF
:10C0F000D1E50000D1E50000D1E50000D1E5000068
:10C10000D1E50000D1E50000D1E50000D1E5000057
:10C11000D1E50000D1E50000D1E50000D1E5000047
:10C12000D1E50000D1E50000D1E50000D1E5000037
:10C13000D1E50000D1E50000D1E50000D1E5000027
:10C14000D1E500007BB972B90029BEBF00204FF0D5
:10C15000004106E008BF00281CBF6FF000414FF00F
:10C16000FF3000F0C7B9ADF1080C6DE904CE00292D
:10C1700009DB002B1ADB00F04DF8DDF804E0DDE907
:10C18000022304B07047404261EB4101002B1BDBEE
:10C1900000F040F8DDF804E0DDE9022304B040429D
:10C1A00061EB4101524263EB43037047524263EB40
:10C1B000430300F02FF8DDF804E0DDE9022304B0CA
:10C1C000404261EB41017047524263EB430300F090
:10C1D00021F8DDF804E0DDE9022304B0524263EB0C
:10C1E0004303704753B94AB9002908BF00281CBF50
:10C1F0004FF0FF314FF0FF3000F07CB9ADF1080C8B
:10C200006DE904CE00F006F8DDF804E0DDE9022374
:10C2100004B070472DE9F0478C46089D04468A46D5
:10C22000002B4AD18A42174662D9B2FA82F64EB141
:10C23000C6F1200E01FA06F3B740B44020FA0EFE14
:10C240004EEA030A4FEA1748230C1FFA87F9BAFB94
:10C25000F8FE08FB1EAA0EFB09F243EA0A439A42C3
:10C260000BD9FB180EF1FF312CBF012000209A42A0
:10C2700002D9002800F02A818E469A1AA3B2B2FB96
:10C28000F8F008FB102200FB09F943EA0244A1453B
:10C2900007D93C1900F1FF3302D2A14500F2108109
:10C2A0001846A4EB090440EA0E4000211DB1F440F9
:10C2B0000023C5E90043BDE8F0878B4208D9002D73
:10C2C00000F0F2800021C5E9000C0846BDE8F087C7
:10C2D000B3FA83F100294ED16345C0F0E880824271
:10C2E00040F2E5800846002DE5D0C5E9004AE2E7C6
:10C2F00002B9FFDEB2FA82F6002E40F099808B1A66
:10C300004FEA124E1FFA82F801214FEA144CB3FB98
:10C31000FEF20EFB123008FB02F94CEA004CE1453C
:10C3200008D917EB0C0C02F1FF3302D2E14500F201
:10C33000CA801A46ACEB090CA3B2BCFBFEF00EFBA4
:10C3400010CC08FB00F843EA0C44A0450ED93C1978
:10C3500000F1FF332CBF4FF0010C4FF0000CA04553
:10C3600003D9BCF1000F00F0A8801846A4EB080424
:10C3700040EA02409AE7C1F120048B4002FA01FE34
:10C380000CFA01F6E24020FA04F72CFA04FC00FA59
:10C3900001F813433E431F0C320C1FFA83F9BCFB18
:10C3A000F7F007FB10CC00FB09FA42EA0C4CE2451F
:10C3B00008D913EB0C0C00F1FF3202D2E24500F277
:10C3C00089801046ACEB0A0CB6B2BCFBF7FA07FB4F
:10C3D0001ACC0AFB09F946EA0C42914506D99A188B
:10C3E0000AF1FF3601D291457AD8B2464AEA0040B6
:10C3F000A2EB0902A0FB0E67BA42B446B94602D3CB
:10C4000007D1B04505D2B6EB0E0C67EB030301383C
:10C410009946002D6BD0B8EB0C0362EB090202FACF
:10C4200004F4CB40CA4000211C43C5E9004242E766
:10C43000B740C6F1200201FA06F3B44021FA02FC2B
:10C440004FEA174E20FA02F21FFA87F8BCFBFEF102
:10C450001A430EFB11CC01FB08F0130C43EA0C4C01
:10C46000604507D917EB0C0C01F1FF3301D2604591
:10C4700033D81946ACEB000C92B2BCFBFEF00EFBBD
:10C4800010CC00FB08F342EA0C4C634507D917EBCC
:10C490000C0C00F1FF3201D2634525D81046ACEBFD
:10C4A000030340EA014130E72946284603E7841A9E
:10C4B0006CEB030301209A4615E702383C4455E72C
:10C4C00002383C44EDE6023ABC4433E7AEF1020EDA
:10C4D0003B44D2E602389C4474E70239BC44C9E7C5
:10C4E000AAF1020A1A4481E70238BC44D7E7294678
:10C4F000E1E600BF704700BF70B491E87800B2E891
:10C5000002105B1854EB0C04B2E802104D4156EBDC
:10C510000C0680E878008041013070BC704770B430
:10C5200091E87800B2E802105B1A74EB0C04B2E8F0
:10C5300002108D4176EB0C0680E878008041404285
:10C5400070BC70472DE9F00791E8F807B2E80210D7
:10C550005B1854EB0C04B2E802104D4156EB0C068C
:10C56000B2E802104F4158EB0C08B2E8021059EB48
:10C5700001095AEB0C0A80E8F80780410130BDE858
:10C58000F00770472DE9F00791E8F807B2E80210CC
:10C590005B1A74EB0C04B2E802108D4176EB0C06CA
:10C5A000B2E802108F4178EB0C08B2E8021079EB88
:10C5B00001097AEB0C0A80E8F80780414042BDE8A7
:10C5C000F00770472DE9F007524290E87800B1E893
:10C5D00080071740DB1918EA020854EB080419EA2F
:10C5E000020955EB09051AEA020A56EB0A0678C059
:10C5F00090E87800B1E8800717407B4118EA02080C
:10C6000054EB080419EA020955EB09051AEA020A73
:10C6100056EB0A0678C080410130BDE8F00770474C
:10C620002DE9F007524290E87800B1E88007174002
:10C63000DB1B18EA020874EB080419EA020975EB1F
:10C6400009051AEA020A76EB0A0678C090E8780033
:10C65000B1E880071740BB4118EA020874EB0804F0
:10C6600019EA020975EB09051AEA020A76EB0A06CD
:10C6700078C080414042BDE8F007704790E8300044
:10C6800091E8C000A31B1340E41AF618EB1B1340FB
:10C69000ED1AFF1830C0C0C17047F0B55242FFF725
:10C6A000EDFFFFF7EBFFFFF7E9FFFFF7E7FFF0BD57
:10C6B0002DE9F0073AC91668A1FB069A4FF0000C65
:10C6C000E3FB06AC4FF00007E4FB06C74FF00008A1
:10C6D000E5FB067840F8049B56684FF00009E1FB43
:10C6E00006A91CEB090C4FF0000949EB0909E3FB13
:10C6F00006C917EB09074FF0000949EB0909E4FBEC
:10C70000067918EB09084FF0000949EB0909E5FB28
:10C71000068940F804AB96684FF0000AE1FB06CAB0
:10C7200017EB0A074FF0000A4AEB0A0AE3FB067A06
:10C7300018EB0A084FF0000A4AEB0A0AE4FB068AE3
:10C7400019EB0A094FF0000A4AEB0A0AE5FB069AC0
:10C7500040F804CBD6684FF0000CE1FB067C18EBE8
:10C760000C084FF0000C4CEB0C0CE3FB068C19EBA7
:10C770000C094FF0000C4CEB0C0CE4FB069C1AEB84
:10C780000C0A4FF0000C4CEB0C0CE5FB06AC80E8FF
:10C790008017BDE8F00770470A462DE9F04F41ECDD
:10C7A000140A92EC080A1EC910EE100AA1FB0078C8
:10C7B0004FF00009E2FB00894FF0000AE3FB009A0A
:10C7C0004FF0000BE4FB00AB12EE100A4FF0000C30
:10C7D000E1FB00BC4FF0000EE2FB00CE4FF0000585
:10C7E000E3FB00E54FF00006E4FB005605EE107A8F
:10C7F00010EE900A4FF00007E1FB008719EB0709E4
:10C800004FF0000747EB0707E2FB00971AEB070A18
:10C810004FF0000747EB0707E3FB00A71BEB070BF5
:10C820004FF0000747EB0707E4FB00B712EE900A52
:10C830001CEB070C4FF0000747EB0707E1FB00C7B5
:10C840001EEB070E4FF0000747EB0707E2FB00E780
:10C85000ED194FF0000747EB0707E3FB0057F61908
:10C860004FF0000747EB0707E4FB006705EE908AEF
:10C8700011EE100A4FF00008E1FB00981AEB080ACD
:10C880004FF0000848EB0808E2FB00A81BEB080B80
:10C890004FF0000848EB0808E3FB00B81CEB080C5D
:10C8A0004FF0000848EB0808E4FB00C813EE100A3C
:10C8B0001EEB080E4FF0000848EB0808E1FB00E80B
:10C8C00015EB08054FF0000848EB0808E2FB00589C
:10C8D00016EB08064FF0000848EB0808E3FB006879
:10C8E00017EB08074FF0000848EB0808E4FB007856
:10C8F00006EE109A11EE900A4FF00009E1FB00A934
:10C900001BEB090B4FF0000949EB0909E2FB00B9E9
:10C910001CEB090C4FF0000949EB0909E3FB00C9C6
:10C920001EEB090E4FF0000949EB0909E4FB00E991
:10C9300013EE900A15EB09054FF0000949EB0909C0
:10C94000E1FB005916EB09064FF0000949EB090914
:10C95000E2FB006917EB09074FF0000949EB0909F1
:10C96000E3FB007918EB09084FF0000949EB0909CE
:10C97000E4FB008906EE90AA14EE901A01F1100172
:10C980001EC910EE100A4FF0000AE1FB00BA1CEBC2
:10C990000A0C4FF0000A4AEB0A0AE2FB00CA1EEB3F
:10C9A0000A0E4FF0000A4AEB0A0AE3FB00EA15EB15
:10C9B0000A054FF0000A4AEB0A0AE4FB005A12EE9D
:10C9C000100A16EB0A064FF0000A4AEB0A0AE1FBCE
:10C9D000006A17EB0A074FF0000A4AEB0A0AE2FB6B
:10C9E000007A18EB0A084FF0000A4AEB0A0AE3FB48
:10C9F000008A19EB0A094FF0000A4AEB0A0AE4FB25
:10CA0000009A07EE10BA10EE900A4FF0000BE1FB0F
:10CA100000CB1EEB0B0E4FF0000B4BEB0B0BE2FBB6
:10CA200000EB15EB0B054FF0000B4BEB0B0BE3FB97
:10CA3000005B16EB0B064FF0000B4BEB0B0BE4FB14
:10CA4000006B12EE900A17EB0B074FF0000B4BEB4D
:10CA50000B0BE1FB007B18EB0B084FF0000B4BEBD3
:10CA60000B0BE2FB008B19EB0B094FF0000B4BEBB0
:10CA70000B0BE3FB009B1AEB0B0A4FF0000B4BEB8D
:10CA80000B0BE4FB00AB07EE90CA11EE100A4FF05F
:10CA9000000CE1FB00EC15EB0C054FF0000C4CEB2F
:10CAA0000C0CE2FB005C16EB0C064FF0000C4CEBA0
:10CAB0000C0CE3FB006C17EB0C074FF0000C4CEB7D
:10CAC0000C0CE4FB007C13EE100A18EB0C084FF082
:10CAD000000C4CEB0C0CE1FB008C19EB0C094FF03B
:10CAE000000C4CEB0C0CE2FB009C1AEB0C0A4FF018
:10CAF000000C4CEB0C0CE3FB00AC1BEB0C0B4FF0F5
:10CB0000000C4CEB0C0CE4FB00BC08EE10EA11EE40
:10CB1000900A4FF0000EE1FB005E16EB0E064FF0A0
:10CB2000000E4EEB0E0EE2FB006E17EB0E074FF001
:10CB3000000E4EEB0E0EE3FB007E18EB0E084FF0DE
:10CB4000000E4EEB0E0EE4FB008E13EE900A19EB76
:10CB50000E094FF0000E4EEB0E0EE1FB009E1AEB9D
:10CB60000E0A4FF0000E4EEB0E0EE2FB00AE1BEB7A
:10CB70000E0B4FF0000E4EEB0E0EE3FB00BE1CEB57
:10CB80000E0C4FF0000E4EEB0E0EE4FB00CE14EE3A
:10CB9000100AA0EC075A80E8E05FBDE8F08F00BF04
:10CBA00030B44FF0000310F8014B11F8015B013A6B
:10CBB00084EA050443EA0403F5D1A3F101034FEA33
:10CBC000D37030BC70474FF0000310F8012B0139CF
:10CBD00043EA0203F9D1A3F101034FEAD37070478E
:10CBE00011F8013B00F8013B013AF9D170470022EE
:10CBF00000F8012B0139FBD1704700BF2DE9F00788
:10CC000091E8F807B2E802105B1854EB0C04B2E8A4
:10CC100002104D4156EB0C06B2E802104F4158EBA2
:10CC20000C08B2E8021059EB01095AEB0C0A8941D1
:10CC3000B3F1FF3374F1FF3475F1FF3576F100067F
:10CC400077F1000778F1000879F101097AF1FF3AEC
:10CC500051F100014A425B184C414D4156F100062A
:10CC600057F1000758F1000859EB02095AEB010A85
:10CC700080E8F807BDE8F00770472DE9F00791E874
:10CC8000F807B2E802105B1A74EB0C04B2E8021069
:10CC90008D4176EB0C06B2E802108F4178EB0C0860
:10CCA000B2E8021079EB01097AEB0C0A89414A4299
:10CCB0005B184C414D4156F1000657F1000758F101
:10CCC000000859EB02095AEB010A80E8F807BDE8B1
:10CCD000F00770470A462DE9F04F41EC140A92EC38
:10CCE000080A1EC910EE100AA1FB00784FF00009D7
:10CCF000E2FB00894FF0000AE3FB009A4FF0000BC3
:10CD0000E4FB00AB12EE100A4FF0000CE1FB00BC9C
:10CD10004FF0000EE2FB00CE4FF00005E3FB00E514
:10CD20004FF00006E4FB005605EE107A10EE900A74
:10CD30004FF00007E1FB008719EB07094FF00007F0
:10CD400047EB0707E2FB00971AEB070A4FF00007D3
:10CD500047EB0707E3FB00A71BEB070B4FF00007B0
:10CD600047EB0707E4FB00B712EE900A1CEB070C39
:10CD70004FF0000747EB0707E1FB00C71EEB070E6C
:10CD80004FF0000747EB0707E2FB00E7ED194FF014
:10CD9000000747EB0707E3FB0057F6194FF00007C2
:10CDA00047EB0707E4FB006705EE908A11EE100AD7
:10CDB0004FF00008E1FB00981AEB080A4FF000085A
:10CDC00048EB0808E2FB00A81BEB080B4FF000083B
:10CDD00048EB0808E3FB00B81CEB080C4FF0000818
:10CDE00048EB0808E4FB00C813EE100A1EEB080E1F
:10CDF0004FF0000848EB0808E1FB00E815EB0805D8
:10CE00004FF0000848EB0808E2FB005816EB080654
:10CE10004FF0000848EB0808E3FB006817EB080731
:10CE20004FF0000848EB0808E4FB007806EE109A83
:10CE300011EE900A4FF00009E1FB00A91BEB090B72
:10CE40004FF0000949EB0909E2FB00B91CEB090CA2
:10CE50004FF0000949EB0909E3FB00C91EEB090E7D
:10CE60004FF0000949EB0909E4FB00E913EE900AD1
:10CE700015EB09054FF0000949EB0909E1FB0059E1
:10CE800016EB09064FF0000949EB0909E2FB0069BE
:10CE900017EB09074FF0000949EB0909E3FB00799B
:10CEA00018EB09084FF0000949EB0909E4FB008978
:10CEB00006EE90AA14EE901A01F110011EC910EEB0
:10CEC000100A4FF0000AE1FB00BA1CEB0A0C4FF00D
:10CED000000A4AEB0A0AE2FB00CA1EEB0A0E4FF0F8
:10CEE000000A4AEB0A0AE3FB00EA15EB0A054FF0D9
:10CEF000000A4AEB0A0AE4FB005A12EE100A16EB8B
:10CF00000A064FF0000A4AEB0A0AE1FB006A17EB37
:10CF10000A074FF0000A4AEB0A0AE2FB007A18EB14
:10CF20000A084FF0000A4AEB0A0AE3FB008A19EBF1
:10CF30000A094FF0000A4AEB0A0AE4FB009A07EEDE
:10CF400010BA10EE900A4FF0000BE1FB00CB1EEB85
:10CF50000B0E4FF0000B4BEB0B0BE2FB00EB15EB5A
:10CF60000B054FF0000B4BEB0B0BE3FB005B16EBE1
:10CF70000B064FF0000B4BEB0B0BE4FB006B12EEC0
:10CF8000900A17EB0B074FF0000B4BEB0B0BE1FB81
:10CF9000007B18EB0B084FF0000B4BEB0B0BE2FB8D
:10CFA000008B19EB0B094FF0000B4BEB0B0BE3FB6A
:10CFB000009B1AEB0B0A4FF0000B4BEB0B0BE4FB47
:10CFC00000AB07EE90CA11EE100A4FF0000CE1FB27
:10CFD00000EC15EB0C054FF0000C4CEB0C0CE2FBDD
:10CFE000005C16EB0C064FF0000C4CEB0C0CE3FB5A
:10CFF000006C17EB0C074FF0000C4CEB0C0CE4FB37
:10D00000007C13EE100A18EB0C084FF0000C4CEBF0
:10D010000C0CE1FB008C19EB0C094FF0000C4CEBF5
:10D020000C0CE2FB009C1AEB0C0A4FF0000C4CEBD2
:10D030000C0CE3FB00AC1BEB0C0B4FF0000C4CEBAF
:10D040000C0CE4FB00BC08EE10EA11EE900A4FF065
:10D05000000EE1FB005E16EB0E064FF0000E4EEBED
:10D060000E0EE2FB006E17EB0E074FF0000E4EEBBC
:10D070000E0EE3FB007E18EB0E084FF0000E4EEB99
:10D080000E0EE4FB008E13EE900A19EB0E094FF022
:10D09000000E4EEB0E0EE1FB009E1AEB0E0A4FF057
:10D0A000000E4EEB0E0EE2FB00AE1BEB0E0B4FF034
:10D0B000000E4EEB0E0EE3FB00BE1CEB0E0C4FF011
:10D0C000000E4EEB0E0EE4FB00CE53EC172A18EECA
:10D0D000104A12EB0A0253EB0B0354EB0C0455EB12
:10D0E0000E05002040F1000012EB0B0253EB0C0385
:10D0F00054EB0E0455EB0E0546410020474158EB1A
:10D10000000859EB0A0940F10000B2EB0E0273F17E
:10D11000000374F1000475EB0A0576EB0B0677EB60
:10D120000C0778EB0A0879EB0C0960F10000B5EB0D
:10D130000B0576EB0C0677EB0E0778EB0B0879EB1B
:10D140000E0960F100005FEAE07C7FEA0C0CDCF184
:10D15000000EB2EB0C0273EB0C0374EB0C0475F1D4
:10D16000000576F1000677F1000778EB0E0879EB01
:10D170000C0960F100005FEAE07CDCF1000E12EBCC
:10D180000C0253EB0C0354EB0C0455F1000556F163
:10D19000000657F1000758EB0E0859EB0C0940F157
:10D1A00000005FEAE07CDCF1000E12EB0C0253EBB6
:10D1B0000C0354EB0C0455F1000556F1000657F131
:10D1C000000758EB0E0859EB0C095BEC15AA51EC63
:10D1D000160A1AEB060A5BEB070B50EB080051EB43
:10D1E00009015FF0000C4CF1000C1AEB070A5BEB35
:10D1F000080B50EB090051EB090152EB0C025FF0F8
:10D20000000C53EB0C0354EB0C0475414CF1000C77
:10D21000BAEB090A7BF1000B70F10000B141BA4191
:10D2200073EB0803B44175EB08056CF1000CC91BE6
:10D2300072EB080273EB0903BC4175EB09056CF155
:10D24000000C5FEAEC787FEA0808D8F10009BAEB35
:10D25000080A7BEB080B70EB080071F1000172F11A
:10D26000000273F1000374EB090475EB08056CF11F
:10D27000000C5FEAEC78D8F100091AEB080A5BEBC6
:10D28000080B50EB080051F1000152F1000253F17C
:10D29000000354EB090455EB08054CF1000C5FEA60
:10D2A000EC78D8F100091AEB080A5BEB080B50EB9D
:10D2B000080051F1000152F1000253F1000354EB58
:10D2C000090455EB080514EE107AA7E8000C87E86E
:10D2D0003F00BDE8F08F00BF0146014814F068BC74
:10D2E000F75B020010B5084C0146084814F060FCDA
:10D2F000224607490748172314F05AFC2046BDE888
:10D300001040172114F061BCCC5B0200AC5B020042
:10D31000FE6D0200DA5B0200014814F049BC00BF58
:10D32000155C02002DE9F04F87B0837A00AF9B00B7
:10D330000A3303F4FF63ADEB030D0546436868460B
:10D34000036004460120C7F80CD0814221D2287C1A
:10D350000E4610F00100904601D014F05FF904462B
:10D36000002E1FDAC023514A5149524814F020FCC4
:10D37000514814F01DFCC0214C4814F026FC4FF01D
:10D38000FF342146287C14F052F91C37BD46BDE815
