:020000040000FA
:10000000C00B00200D110000733B00003D110000EB
:100010003D1100003D1100003D1100003D110000A8
:10002000000000000000000000000000510F000070
:100030003D11000000000000090F0000673A0000B9
:10004000CD100000CD100000CD100000CD1000003C
:10005000CD100000CD100000CD100000CD1000002C
:10006000CD100000CD100000CD100000CD1000001C
:10007000CD100000CD100000CD100000CD1000000C
:10008000CD100000CD100000CD100000CD100000FC
:10009000CD100000CD100000CD100000CD100000EC
:1000A000CD100000CD100000CD100000CD100000DC
:1000B000CD100000CD100000CD100000CD100000CC
:1000C000CD100000CD100000CD100000CD100000BC
:1000D000CD100000CD100000CD100000CD100000AC
:1000E000CD100000CD100000CD100000CD1000009C
:1000F000CD100000CD100000CD100000CD1000008C
:10010000CD100000CD100000CD100000CD1000007B
:10011000CD100000CD100000CD100000CD1000006B
:10012000CD100000CD100000CD100000CD1000005B
:10013000CD100000CD100000CD100000CD1000004B
:10014000CD100000000000000000000000000000D2
:10015000000000000000000000000000000000009F
:10016000000000000000000000000000000000008F
:10017000000000000000000000000000000000007F
:10018000000000000000000000000000000000006F
:10019000000000000000000000000000000000005F
:1001A000000000000000000000000000000000004F
:1001B000000000000000000000000000000000003F
:1001C000000000000000000000000000000000002F
:1001D000000000000000000000000000000000001F
:1001E000000000000000000000000000000000000F
:1001F00000000000000000000000000000000000FF
:10020000DEE61E284CBBCE8F025B00003C000000E7
:10021000008000000100000000000000000000005D
:10022000FFFF02910000000000000000000000003D
:1002300000000000000000000000000053B94AB9AF
:10024000002908BF00281CBF4FF0FF314FF0FF30DE
:1002500000F070B9ADF1080C6DE904CE00F006F8BD
:10026000DDF804E0DDE9022304B070472DE9F04F2A
:10027000099E04468946002B40F083808A42154639
:1002800045D9B2FA82F24AB1C2F1200701FA02F36B
:100290009540944020FA07F747EA03094FEA154EC4
:1002A000230C1FFA85F8B9FBFEFC0EFB1C990CFB16
:1002B00008F143EA094399420AD9EB182CBF0120FF
:1002C0000020994202D9002800F01D810CF1FF3C6A
:1002D000591AA3B2B1FBFEF00EFB101100FB08F897
:1002E00043EA0144A04505D92C1902D2A04500F2E9
:1002F0000E810138A4EB080440EA0C4000271EB12F
:10030000D4400023C6E900433946BDE8F08F002AF7
:1003100051D0B2FA82F2002A40F0AF80491B4FEA76
:10032000154E1FFA85F80127230CB1FBFEFC0EFBCE
:100330001C1108FB0CF043EA014398420AD9EB1860
:100340002CBF01210021984202D9002900F0D7805A
:100350000CF1FF3C191AA3B2B1FBFEF00EFB101119
:1003600008FB00F843EA0144A04505D92C1902D244
:10037000A04500F2C1800138A4EB080440EA0C401B
:10038000BDE78B4208D9002E74D00027C6E90001D2
:1003900038463946BDE8F08FB3FA83F767B98B4228
:1003A000C0F0A480824240F2A1803846002EABD03B
:1003B000C6E90049A8E7FFDEC7F12005BB4002FA05
:1003C00007FC01FA07F4EA4020FA05F8E94000FAD0
:1003D00007FE1A4348EA04044FEA1248200C1FFAA9
:1003E00082F9B1FBF8FA08FB1A110AFB09FB40EA93
:1003F00001418B450AD951182CBF012300238B459D
:1004000002D9002B00F088800AF1FF3AA1EB0B0122
:10041000A4B2B1FBF8F008FB101100FB09F944EAA3
:100420000141894504D9511801D289457BD8013849
:1004300040EA0A40A1EB0901A0FB0C89494544466A
:100440004B4602D306D1C64504D20138B8EB0C04A2
:1004500069EB0203002E5DD0BEEB040261EB0301E9
:1004600001FA05F522FA07F3F94000271D43C6E912
:10047000005149E73746304646E7C2F12000954033
:1004800001FA02F721FA00F34FEA154E24FA00F1BF
:100490001FFA85F894403943B3FBFEF00F0C0EFBB6
:1004A000103300FB08FC47EA03439C4507D9EB18CF
:1004B0002CBF012700279C4500D98FB30138A3EB3F
:1004C0000C0389B2B3FBFEF70EFB173307FB08FCE6
:1004D00041EA03418C4504D9691801D28C4525D8DD
:1004E000013FA1EB0C0147EA00471DE7841A61EBCD
:1004F00003030120994659E702382C443CE7ACF14C
:10050000020C2B4426E7ACF1020C2B44E0E6023847
:100510002C44EFE63746F7E6AAF1020A114475E7E4
:1005200002382B44CBE70238114481E7023F2944CB
:10053000D7E700BF704700BF2DE9E04F2746A04630
:10054000A146A246A346A4462DED108B4FF0000510
:1005500045EC185B45EC195A45EC1A5A45EC1B5A08
:1005600045EC1C5A45EC1D5A45EC1E5A45EC1F5AE9
:10057000F1EE105A4FF66076C0F6FF763540E1EEA8
:10058000105A84F3008825462646A447BDEC108BFC
:10059000BDE8E08F0B6801330B60014B1B68184707
:1005A000000000202DE9F04F87B00F461946109B40
:1005B00006461425104698469DF844B09DF848A07C
:1005C0001C4C4FEAE37950EA01031AD1142D08BFFD
:1005D0003023139C18BF01352C4408BF8DF814300C
:1005E000152C17D0153C002C16DC1DF805003946DB
:1005F0000135B047152DF8D1002C15DC07B0BDE84A
:10060000F08F42464B46FFF719FEA35C0DF805300C
:10061000013DD8E70024E8E7BBF1000FE5D03946FB
:100620005046B047013CDEE739465046B047013CF2
:10063000E2E700BF64440000002307B502460193CF
:1006400003480B4601A902F066FF03B05DF804FB06
:10065000950500004FF02002EFF3118382F311881B
:10066000BFF36F8F0121044AC2F8401583F311884C
:10067000BFF36F8F002070470090035020B1034BF1
:10068000800143F001031847704700BF004200009B
:1006900008B504464FF02002EFF3118382F311886E
:1006A000BFF36F8F03F0E1F9204600F05DFE0348D1
:1006B00003F034F800F0C2FCFCE700BF7544000012
:1006C000F8B50C24114D0646EB6804FB00340123F9
:1006D00063724FF02003EFF3118183F31188BFF3AE
:1006E0006F8F23682BB160681A688342226008BF4D
:1006F000626081F31188BFF36F8F03B9F8BDD3E94E
:10070000017231462846B847E3E700BF7000002079
:1007100008B5114B1A686AB14FF05022D2F8042381
:10072000D10707D500221A600C4BDB68587A08B94C
:10073000FFF7C6FF0A4B1A6862B14FF05022D2F899
:100740000423920706D5002201201A60BDE8084064
:10075000FFF7B6BF08BD00BF005100507000002079
:1007600004510050821C084B22F07F42C3F8402500
:10077000D3F80425904200D17047D3F80405821CB9
:1007800022F07F42F2E700BF005001500022064BEA
:100790001A60064AD3F800041368C01A20F07F409C
:1007A0000344136001F04ABF405101502802002069
:1007B00038B5144801F03EF900B3836800241B6883
:1007C000012198474FF400120F4D104BC5F8084512
:1007D0001C600F4B0121C3F880214FF48033224667
:1007E000C5F80433152000F0D3FB152000F0C0FB42
:1007F00001232046074A13602B6038BD4FF0FF30BD
:10080000FBE700BF5E460000005001504051015020
:1008100000E100E008500150F8B52C4B2C4CD3F807
:1008200004252C4BB0F1FF3F08BF20461968521A2F
:1008300022F07F43120236D4013820EAE070A04251
:10084000A8BF204601331844A04294BF0C180C19CD
:100850004FF4803000271D4B1F4EC3F80803D3F818
:100860000415D3F8402521F07F45521A22F07F422B
:10087000012A3760C3F84055C3F844031D4603D12D
:100880000F2003F02BFB37604FF40012134BC3F81B
:100890008021D5F80405231A23F07F43012B04D1CE
:1008A000FFF760FF0BE00020CCE724F07F43C5F8A2
:1008B0004035D5F80405241A023C2302F0D44FF445
:1008C0008032024BC3F80423F8BD00BF0050015032
:1008D000FFFF7F00280200204051015000E100E0AE
:1008E0004FF02002EFF3118382F31188BFF36F8F73
:1008F000064AD2F80405064A1268801A20F07F40A2
:1009000083F31188BFF36F8F704700BF0050015011
:1009100028020020F7B500281C460D4614BF4FF4EE
:1009200000534FF40043204E954232D302FB03F0B4
:10093000013A00904B431D4802F0F0FE1C4B14F0AE
:10094000100F1C491C4808BF194602F0E7FE14F0BE
:10095000040F14BF72212D21184802F0DFFE14F09D
:10096000020F14BF77212D21144802F0D7FE14F096
:10097000010F0CBF2D217821104802F0CFFE6C2111
:100980000E4802F0CBFE0E4803B0BDE8F04002F086
:10099000C5BE28B105F5E07746F827400135C3E725
:1009A00005F5C077F8E700BF00300050BD440000F7
:1009B000B1440000A8440000C7450000D74400002F
:1009C0000B48000008B543B2002B0CDB012200F0FD
:1009D0001F018A405B091049203341F82320BFF3EF
:1009E0004F8FBFF36F8F830003F1A04303F5405394
:1009F0003128D3F8002806D0002A07DA02F00302D3
:100A0000023A012A02D8054AC3F80028002103F05F
:100A10007FF8002008BD00BF00E100E00001008079
:100A200030B54FF440444CF2040585B04FF44041DA
:100A30002C4802F073FE21682B4802F06FFE2968F3
:100A40002A4802F06BFE10220021684603F020F9CC
:100A5000236868460093029400F03CFE012000F0F9
:100A600069FE002000F052FE002000F077FE012118
:100A7000002000F091FE00F085FE2C681C4802F07A
:100A80004DFE0820FFF79EFF24F00104BFF34F8FB7
:100A9000BFF36F8F64086400204621462246234638
:100AA000B7EE000AF7EE000AB7EE001AF7EE001AEA
:100AB000B7EE002AF7EE002AB7EE003AF7EE003A5A
:100AC000B7EE004AF7EE004AB7EE005AF7EE005ACA
:100AD000B7EE006AF7EE006AB7EE007AF7EE007A3A
:100AE000FFF72AFDDE450000F54500000A4600003C
:100AF000284600002DE9F8433B4802F00FFE002194
:100B000040F2171308460122FFF704FF40F20713D3
:100B1000202201210020FFF7FDFE344802F0FEFDF7
:100B2000334B344AC3F3C431C3F30E03C3F500435C
:100B3000C3F34313C2F80015C2F80435D2F8001508
:100B4000D2F804252C48520102F0E8FD274802F0B3
:100B5000E5FD02F08BFF014610B1284802F0DEFDF2
:100B60000024274802F0DAFD40F217130822002182
:100B70000120FFF7CFFE1F4D40F20713202208216E
:100B80000120FFF7C7FE194802F0C8FDC5F88044F0
:100B90001C4802F0C3FD1C4FC5F8C044DFF87C8040
:100BA0001A4DDFF87C906E792A68002E14BF3B4600
:100BB00043462146484602F0B1FD66B91448013467
:100BC00002F0ACFD1A2C05F10805ECD10748BDE890
:100BD000F84302F0A3BD2879FFF7F4FE08B10D48F1
:100BE000EDE70D48EBE700BFE54400000B480000CF
:100BF000E07F000000300050094500004F45000034
:100C00007F450000A1450000DA4400001C420000BE
:100C1000CA450000D1450000D9450000B544000098
:100C2000BD45000010B500284BD0002A49D0264B06
:100C300099423CD9541803F61D239C423AD802F03D
:100C4000FDFF0020BDE81040714672467346B7EEC6
:100C5000000AF7EE000AB7EE001AF7EE001AB7EE38
:100C6000002AF7EE002AB7EE003AF7EE003AB7EEA8
:100C7000004AF7EE004AB7EE005AF7EE005AB7EE18
:100C8000006AF7EE006AB7EE007AF7EE007A8EF3AC
:100C9000008C10B4F1EE10CA4FF66074C0F6FF7409
:100CA0000CEA040CE1EE10CA10BCF4467447074B82
:100CB000994203D9064B54189C42C0D94FF0FF30DB
:100CC000C0E76FF01500BDE70302FF002F01FF0032
:100CD0003801FF002DE9F04F834685B08946002991
:100CE00051D00027DFF8B0A0DFF8B08001AE5AF88D
:100CF000044B98E807005C4486E807000C22314664
:100D0000204602F074FF054608B9002C3ED1013799
:100D1000052FECD16FF00D05284605B0B7EE000A9F
:100D2000F7EE000AB7EE001AF7EE001AB7EE002A47
:100D3000F7EE002AB7EE003AF7EE003AB7EE004AB7
:100D4000F7EE004AB7EE005AF7EE005AB7EE006A27
:100D5000F7EE006AB7EE007ABDE8F04F71467246D2
:100D60007346F7EE007A8EF3008C10B4F1EE10CAE1
:100D70004FF66074C0F6FF740CEA040CE1EE10CA82
:100D800010BCF44674476FF01505C5E73C222146B8
:100D9000484602F053FFBFE7EC420000D04100009C
:100DA000014801F0CDBE00BF0043000008B530B1DE
:100DB00043683BB1006801F033F8002008BD6FF4D0
:100DC000E040FBE70048F9E7EA8FFFFF38B504464B
:100DD00018B90B4B0B485B689847656855B115F01F
:100DE0000205206807D10146074800F077FF25601B
:100DF0000023636038BD1422002102F049FFF7E7A9
:100E0000440000204F4700002C02002010B504468B
:100E100018B9144B14485B6898476368CBB92368CA
:100E2000BBB94FF0FF324FF0FF3321460F4800F0BF
:100E300023FF08B923681BB90A4B0D485B68984724
:100E400014220021206802F023FF636843F00203AC
:100E50006360206802F083FF636843F0010363600E
:100E600010BD00BF440000204F4700002C020020AE
:100E70007547000008B568B1436873B100684FF06A
:100E8000FF334FF0FF3200F053FF054B002818BF2F
:100E9000184608BD6FF4E040FBE70248F9E700BFE1
:100EA000E98FFFFFEA8FFFFF08B5064940231422B0
:100EB000054802F039FFBDE808400449044801F044
:100EC00077BE00BF480200202C020020184300001B
:100ED00008430000094A0A499368096858679967F6
:100EE00008494B6843F080534B60002383F311881B
:100EF000BFF36F8F9368986F704700BF5C07002047
:100F00006843000000ED00E00F498A684FF03800A8
:100F10001044EFF3098C80E8F01F202080F3118843
:100F2000BFF36F8F094F4FF000664A6A8A603E60D8
:100F3000506F0023536780F3118802F1380090E866
:100F4000F01F8CF3098870475C07002004ED00E077
:100F50001EF0040F0CBFEFF30880EFF309808169E6
:100F600011F8021C0229FFD001B502F0FEFD01BDFF
:100F700043B2002B08DB012200F01F0002FA00F050
:100F8000024A5B0942F82300704700BF00E100E01D
:100F900043B2002B01F10101A8BF03F160434FEA06
:100FA0004111B8BF054BC9B2ABBF03F5614300F0B7
:100FB0000F0083F800131954704700BF14ED00E0D0
:100FC000C0E91A120A44203A22F007021360009B7B
:100FD00007495360019B21F001019360029B9161DD
:100FE000D3604FF08073D3610023826543677047FD
:100FF00037370000F8B51D4606460C461746002355
:10100000E1EE103A00F0F4F9084B3C4424F00704F8
:101010009E60284684F30988002163B681F3118815
:10102000BFF36F8F0022002302F085FB5C070020D6
:10103000014910220A60704710ED00E072B640408E
:1010400080F31188BFF36F8FBFF34F8F30BF62B64D
:10105000BFF36F8F704700BF30BFFFF7FDBF00BF0A
:10106000174A08B5174B22F07F029A60BFF34F8FE3
:10107000BFF36F8FD3F8882022F47002C3F8882062
:10108000D3F8882042F4A002C3F888200E4A53689F
:1010900023F040435360BFF34F8FBFF36F8F0023A4
:1010A000E1EE103AEFF3148323F0040383F3148882
:1010B00000F0FEFC00F006FD00F068F900F034FDE1
:1010C0000000000000ED00E030EF00E001B572B676
:1010D0000B4A106A00281EBF0021116202F022FE96
:1010E00062B6EFF30580A0F110004FEAC000054999
:1010F000014409C99847BDE8014003490847000079
:101100005C070020BC3F00004D13000002F0F1FB23
:10111000202080F3118808484FF40061401880F3C4
:101120000988EFF314800221084380F31488BFF389
:101130006F8FFFF795FF0000000D0020EFF3088090
:10114000EFF30981724601B500F06CF801BD00BFF4
:101150000C4B9A6A9A6A9A6A920708D55A6B9A6AED
:10116000120604D518B19A6A22F080029A62002011
:10117000044B9A6A9A6A9A6A9A6A42F0FF029A62E1
:101180000870704700ED00E00D4B9A6A9A6A9A6AFF
:10119000920508D59A6B9A6A120404D518B19A6A16
:1011A00022F400429A620020054B9A6A9A6AD2059C
:1011B00058BF9A6A9A6A42F47F429A6208707047EE
:1011C00000ED00E0074B00209A6A9A6A9A6A9A6AD0
:1011D0009A6A9A6A9A6A9A6A6FEA02426FEA1242B5
:1011E0009A62704700ED00E00D4B9A695A695A699E
:1011F000D0070FD45A6991070CD45A69520709D401
:101200005A69100706D45A69D10603D45A6992065E
:1012100058BF5A695A6942F0FF025A61704700BFCD
:10122000D0ED00E0F0B5414B8BB05B680025C3F317
:10123000080385F31188BFF36F8F02F07F44B4F188
:101240007F4F1ED112F001041AD0560602F0080496
:1012500067D482F00402C2F3800564B1EFF389869B
:101260000022033B8DF80720042B4BD8DFE803F066
:101270000B4C50414800EFF38886F1E70E46EFE74C
:1012800025462E46ECE7294BDA6A92073AD4DC6A07
:1012900014F0804408D028331B78EBB101200DF105
:1012A0000701FFF755FF04469DF8073093B9202248
:1012B000314602A802F0C2FC099B6DB3C3F30802D9
:1012C00022B96FEA53236FEA4323099302A9204608
:1012D00002F049FC0BB0F0BD154B1B782BB101207F
:1012E0000DF10701FFF750FFDDE7124B1F88BFB27A
:1012F00017B1FFF767FFD6E70F4B5C69002CD3D01F
:10130000FFF772FF0024CFE70DF107010020C8E7C7
:101310000DF107010020E5E723F4FF7323F001033B
:10132000D3E7002CAAD10646012599E700ED00E09D
:1013300029ED00E02AED00E0D0ED00E0024A53691B
:1013400043F010035361704700ED00E0044B9968CF
:10135000586A884203D003494FF080520A607047B0
:101360005C07002004ED00E0BFF34F8F0549064BFA
:10137000CA6802F4E0621343CB60BFF34F8F00BF33
:10138000FDE700BF00ED00E00400FA050023202186
:101390000348C2180133412B82F80013F9D170477A
:1013A00000E100E038B505464FF02003EFF311846B
:1013B00083F31188BFF36F8F00F0ECFE0A4B9B683C
:1013C000AB420BD1094B5A68C2F3080212B920464E
:1013D000FFF780FD5A6842F080525A602046BDE80F
:1013E000384002F0CEBC00BF5C07002000ED00E0FA
:1013F00010B50E4B88B002930D4B0E4C03930E4B61
:101400000E4A049302AB019301A82346012100F088
:1014100003F9002307930A4B0121E41A05A8059359
:10142000069400F003F908B010BD00BF00000020D2
:101430000000000000000120060001000000002064
:101440000801002010B50B680C7A23F01F0204F08D
:101450001F031A43CB68640923F01F03044943EABE
:10146000440343F001038860CA600B6110BD00BFF4
:1014700090ED00E02DE9F04F8046894614460027A4
:10148000484D85B04F4507DA58F827305E68C6B337
:101490001F2E05D86FF01504204605B0BDE8F08F6B
:1014A000F206F7D1D3F800A01AF01F0FF2D1504680
:1014B00002F088FB834606EB0A00013802F082FB4B
:1014C0008345E7D11BF1160FE4D0631E5B45E1DBDA
:1014D000C5F808B0E86858F82710C5F808B02E69B4
:1014E00020F01F00D1E900321A44984246F01F064E
:1014F00002F1FF3A18D1564505D15FFA8BF002F0A0
:101500003FFB0137BEE7C5F808B0EB6822F01F02C9
:1015100003F01F031A43EA60E0B202F031FB10F15E
:10152000160FB7D0441CECE7C5F808B02A69013B98
:1015300023F01F0302F01F0213435645E0B22B6154
:10154000EBD002F01DFB10F1160FA3D0C5F808B0C8
:10155000EA689DF80830013E62F304038DF8083014
:101560002B699DF808205B0863F347128DF808206B
:1015700058F827200130D2E900321344009323F0B9
:101580001F031E44A6EB0A06C4B226F01F060F2C4A
:1015900003963FF67FAF20466946FFF753FF0134BD
:1015A000AFE700BF90ED00E00522034B5A60BFF3A8
:1015B0004F8FBFF36F8F704790ED00E0BFF35F8FE9
:1015C0000022014B5A60704790ED00E070B50E4D5F
:1015D0002E68102E15D80024FFF7F0FF0B4B0C4A95
:1015E0001A63A64205D10B4B1E70FFF7DDFF0020EA
:1015F00070BD6968204601EB0411FFF723FF013439
:10160000EFE74FF0FF30F3E72C43000090ED00E0F0
:10161000AAFF4400B807002010B5034C2278FFF75A
:1016200029FF207010BD00BFB80700202DE9F74F3B
:10163000254C8A4680460027A1464FF0140B234DC7
:1016400057451ADAD8F804300193002B36D0D8F871
:1016500000100846009102F0B5FADDE900130646D5
:101660005818013802F0AEFA8642194A08D01423FD
:101670005F436FF0150349F8073003B0BDE8F08F02
:1016800016F1160F2660F8D01378B342F5DD0BFB88
:101690000793AE60AE60E868197B60F304011973CC
:1016A0002969187B490861F347101873EB6823F028
:1016B0001F0363602B6923F01F0323610137143478
:1016C00008F10C08BCE700BF4807002090ED00E0DF
:1016D000B807002082680C4B9A60036883F38888FF
:1016E000436883F38988027B02F00101EFF394835E
:1016F00023F00303920748BF43F0020309B143F00C
:10170000010383F39488704700ED02E0084AD36830
:1017100048B123F400531B041B0C43F0BF6343F494
:101720000033D36070479BB243F40053F5E700BF2A
:1017300000ED00E0084AD36840B19BB243F4804317
:1017400043F0BF6343F40033D360704723F4804316
:101750001B041B0CF4E700BF00ED00E0084AD3684F
:1017600040B19BB243F0080343F0BF6343F400333E
:10177000D360704723F008031B041B0CF4E700BF81
:1017800000ED00E0034AD2F88C3043F44063C2F825
:101790008C30704700ED00E0084B1A6818B142F039
:1017A00001021A60704722F001021A601A6811B132
:1017B00042F00202F5E722F00202F2E7D0ED00E08B
:1017C0002DE9F0430025214C214E54F8048CDFF81C
:1017D000889085B0A84503D8002005B0BDE8F08307
:1017E000636A96E807001F6801AB83E807000C22D4
:1017F0001946384602F0FBF990B98FB1636A216946
:101800001B681A6991420BD19A69A169914207D864
:10181000E169914204D962695B6932EA03030AD043
:10182000276A67B10B4801F079FF404080F31188C7
:101830004FF0040002DFE36801351C44CAE7484664
:1018400001F06CFF636A1F60F5E700BF3C02000017
:10185000DC410000B1470000DA470000064B186881
:10186000043B1B68092B05D1013801288CBF0020DF
:1018700001207047002070473401FF00054B1868B5
:10188000043B1B68092B03D1431E58425841704743
:10189000002070473401FF004E4A08B5136843F03A
:1018A00002031360FFF7DAFF30B14FF0502300223C
:1018B000C3F81421C3F81821FFF7E0FF30B101236A
:1018C000454A1360A2F63822C2F87835434B1B68AC
:1018D000092B07D1424B1B68022B02BF0122414B4F
:1018E000C3F87825FFF7CAFF10B10E223E4B1A60ED
:1018F000FFF7B4FF20B100223C4B1A6001225A606E
:101900000022D30003F57F03D3F80013013108D080
:10191000D3F800130132D3F80433B2F5807F0B60A3
:10192000EFD1334BDA69D1073BD5324B1946D3F8A7
:101930000024012AFBD1C3F80425D1F80034012B7F
:10194000FBD12B4BDA69D20708D5DA69294922F095
:101950000102DA61D1F80024012AFBD11A6A0132AE
:101960000AD11A6A22F0FF0242F020021A62214ACA
:10197000D2F80034012BFBD100221E4BC3F8042502
:10198000D3F80024012AFBD1BFF34F8F1A491B4B18
:10199000CA6802F4E0621343CB60BFF34F8F00BF0D
:1019A000FDE71B6A0133C0D0134BD3F88C2042F4FF
:1019B0004062C3F88C20D3F8882042F47002C3F848
:1019C0008820BFF34F8FBFF36F8F0D4B0D4A1A6006
:1019D00008BD00BFD0ED00E0384A00503001FF00E4
:1019E0003401FF0000400050E4AE03500C470050AB
:1019F0000080FF000090035000ED00E00400FA05B5
:101A0000240000200090D003F8B50027084B53F8BD
:101A10002040013053F82060A64200D8F8BDD4E938
:101A200000352846984708B105B1AF600834F3E7A0
:101A3000544300000F4B70B505461E460E4C9C42A9
:101A400004D10D4CB44208D1002410E0A26812B1B8
:101A50002268AA420BD01034F1E7A3680BB9103406
:101A6000F0E72168284602F0B6F80028F7D12046B2
:101A700070BD00BFA00000207000002008B50B4D15
:101A80004FF02002EFF3118382F31188BFF36F8FC1
:101A900002F03CFA012104460228D8BF084602F0B1
:101AA00045FA2C62FFF7CAFAEAE700BF5C0700209C
:101AB0000248034A0021121A02F0EAB80801002085
:101AC000BC07002008B50648064A0749121A02F06A
:101AD000B5F8BDE80840054A0549064802F0AEB829
:101AE0000000002004010020244800000000000045
:101AF0002448000000000020012208B5084B022005
:101B00001A70FFF781FF0320FFF77EFF00F070FCE3
:101B100001F0F8FC034A137B23F00103137308BDA3
:101B2000B9070020880100202DE98048DFF8F890EF
:101B3000A7B089F308880024E023344D4FF0010B4F
:101B400085F82230EC772C766C76AC76EC766B6A86
:101B50002F4E43F4E0236B626B6ADFF8D0A043F4AE
:101B600000236B62AC63FFF7E9FBFFF761FA4FF00C
:101B7000FF33AB62EB6240F20113264DADF8243027
:101B800006ABAB602046CDE92044FFF73DFF0120C6
:101B9000FFF73AFFDFF8988000F0F2FB1E4B6E6211
:101BA0004FF480624146059330465346CDE9034BDE
:101BB000CDE90144009400F0F5FB737B304623F03F
:101BC0000403737302F0F9F80F23144FCDE90243B5
:101BD0004FF4A072124B13493846CDE904B4CDE955
:101BE000004400F0DFFB7B7BEF6023F004037B739A
:101BF00005F11803C5E906332C75C5F80490534662
:101C00004FF4806241463046FFF7F4F900ED00E002
:101C1000880100205C07002018480000080100200F
:101C20007D1A0000C00B002000150020F91A0000EA
:101C3000C007002070B50E4B0E4CA34201D300200C
:101C400070BDD3E9030141EA000212F003020BD197
:101C50009D685A61AA4201D11C33EEE75E690132E8
:101C60000E6059610144F5E76FF01500E8E700BF29
:101C7000A0000020A0000020D3B50C4616461F4649
:101C80004FF02003EFF3118183F31188BFF36F8FBF
:101C900043695BB123601B684361836901338361DE
:101CA000002081F31188BFF36F8F11E056EA07021D
:101CB00003D123606FF00B00F3E70246CDE9006724
:101CC000044800F005FB18B9034B9B685B6923606F
:101CD00002B0D0BDBA0700205C07002070B50446F2
:101CE0000D464FF02003EFF3118683F31188BFF305
:101CF0006F8F02F0C6F858B100212A6881674261EF
:101D000002F05BF83146BDE87040084802F02EB89A
:101D10002B6862691A602B686361A369013BA36148
:101D200086F31188BFF36F8F70BD00BFBA07002024
:101D30002DE9F341044616461F464FF02003EFF30A
:101D4000118883F31188BFF36F8FC368324A6BB178
:101D500080689168884219D056EA070318D188F341
:101D60001188BFF36F8F6FF00F000CE0916891F94D
:101D70000E100133E36093682161A36088F311883A
:101D8000BFF36F8F002002B0BDE8F0812169F0E75A
:101D900090F90E3091F90E109942A8BF194621EA28
:101DA000E17199422CDA00F0A7FA0546CDE9006707
:101DB00022464146194800F08BFA0028E3D04FF044
:101DC0002003EFF3118683F31188BFF36F8F23682D
:101DD0002169A34207D033B193F90E309942A8BFCD
:101DE000194621EAE171A06890F90E30994209D1B3
:101DF0006DB13146094801F0B9FF6FF00A00C2E742
:101E00000025D3E700F078FA0028F2D1F0E786F356
:101E10001188BFF36F8FF0E75C070020BA0700203E
:101E200038B583680446002B36D01E4A9268934228
:101E300035D1DA7B013ADA73C368012B05D0013B57
:101E4000C36000F0C3F8002038BD4FF02003EFF36B
:101E5000118583F31188BFF36F8F0169806890F952
:101E60000E30994201D000F047FA204602F009F8FE
:101E7000A06058B190F90E2022610022826701F023
:101E80009CFF2946084801F071FFDAE7E06085F31E
:101E90001188BFF36F8FD4E76FF01500D4E74FF0D0
:101EA000FF30D1E75C070020BA07002010B5084CCE
:101EB00023685BB1FEF714FD2368064A18441061DD
:101EC0000021BDE81040184602F030B810BD00BF38
:101ED000940700205C070020F8B50D464FF0200362
:101EE000EFF3118483F31188BFF36F8F4FF4004138
:101EF00040F2E73600270022E1FB0067094B30463D
:101F00001A6139464FF47A720023FEF797F9064BAF
:101F10001860064B1D60FFF7C9FF84F31188BFF3FB
:101F20006F8FF8BD5C070020940700209007002009
:101F30004FF02003EFF3118183F31188BFF36F8F0C
:101F4000044B9A68D37B013BD37381F31188BFF3B1
:101F50006F8F70475C070020094B03F12802824213
:101F600005D19B688B4202D14B7BDB0606D1D1E9C0
:101F7000003213605A600023C1E90033704700BF8C
:101F80005C07002070B5104C064604F1280001F0F3
:101F90000EFF0546A368597B880644BF41F008013F
:101FA000597305B9E5684EB95A7BD20606D1AA69BC
:101FB00022B9DA897F2A01D9636270BDAB4201D0B0
:101FC000FFF774FF6562F8E75C07002010B54FF07B
:101FD0002003EFF3118483F31188BFF36F8F084B55
:101FE00000209A68D37B0133D373FFF7CBFF84F3D0
:101FF0001188BFF36F8FBDE8104001F0CEBE00BF67
:102000005C07002070B4437BDB0627D183692BBBC0
:10201000134A02F12801D2E90A348B4218D0BBB12D
:1020200090F90E5093F90E60AE420CDD5A68C0E98B
:10203000003210605860437B63F07F03437370BCD1
:102040000020FFF79FBF9C4202D01B68002BE9D104
:10205000C0E90014D36A1860D062ECE770BC704726
:102060005C07002010B54FF02003EFF3118483F3D9
:102070001188BFF36F8F437B590704D484F3118811
:10208000BFF36F8F10BD23F004034373FFF7BAFF54
:102090002146BDE81040014801F068BEBA070020A3
:1020A000F8B504464FF02003EFF3118583F3118850
:1020B000BFF36F8F90F90D30002B03DA01461848FB
:1020C000FFF74AFF174A02F12801D2E90A308B4292
:1020D0001FD0F3B194F90E6093F90E70B74213DD7F
:1020E0005968C4E900310C605C60637B906863F000
:1020F0007F036373031B58425841FFF743FF85F387
:102100001188BFF36F8FF8BD984202D01B68002B77
:10211000E2D1C4E90010D36A1C60D462E5E700BFD5
:10212000840700205C070020154A164938B50C6862
:102130009368A342144603D1BDE83840FFF7B6BE0A
:1021400000250D6010490968B9B1D9897F2914D8D3
:102150000E4993F90E5009688D420EDB0C498B42F3
:102160000BD0996949B91169814203DC1846FFF720
:1021700097FFE1E7091A116138BD00232361FBE7EE
:102180005C0700208C0700209407002090070020A7
:1021900008010020036E2DE9F041044603B1984781
:1021A00004F1180001F09CFE4FF02003EFF31186BC
:1021B00083F31188BFF36F8F637BD80623D1A269A5
:1021C0000ABB190607D521461E48FFF7C5FE637BEB
:1021D00003F07F0363731C4B9868021B504250410D
:1021E000FFF7D0FE0027637B04F1300843F00803BB
:1021F0006373256B454500D095B986F31188BFF30D
:102200006F8FBDE8F0819B07ECD52146A068FFF7F2
:10221000A3FE637B23F0020363730023A360E1E763
:1022200005F1180001F05CFEA8682946FFF794FE4E
:102230006B7BAF6023F002036B73AF672846FFF739
:10224000E1FED6E7840700205C07002010B590F976
:102250000D300446002B07DA01460848FFF77CFEE4
:10226000637B03F07F036373054B9868031B58423D
:102270005841BDE81040FFF785BE00BF840700202D
:102280005C0700202DE9F041064614461D464FF03C
:102290002003EFF3118783F31188BFF36F8F01F0F1
:1022A000C8FD87F31188BFF36F8F6B1C08BFB4F1B3
:1022B000FF3F08D022462B4606F118000349BDE82F
:1022C000F04100F031B9BDE8F08100BFDB3D000016
:1022D00010B50C46064B11469868064B1860DDE9B0
:1022E0000223FFF7CFFF2046BDE81040FEF7F2BD06
:1022F0005C0700208C0700202DE9F04104464FF0D8
:102300002003EFF3118883F31188BFF36F8F437BB2
:102310004EB2DB062ED1836963BB184D014605F131
:1023200028073846FFF718FEAB6AA673BB422A4659
:1023300019D0C3B1E96A93F90E00B0420EDD5A68B4
:10234000C4E9003214605C600120FFF71BFE01202D
:1023500088F31188BFF36F8FBDE8F081994202D0F6
:102360001B68002BE7D1D36A27606360D36A1C60C7
:10237000D462E9E7A6730020EAE700BF5C0700200B
:102380000021044B084603F12802C3E90A22FFF7A3
:10239000A3BD00BF5C070020014B9868704700BFD9
:1023A0005C070020F0B500F13005C0E90C550425AC
:1023B00045730025044687B0DDE90F678673CDE9D4
:1023C00003670E9E077302960D9EC57301960C9EC1
:1023D000C0E906550096FEF7F3FD044BC4E9175516
:1023E0009B6803B11B6F236707B0F0BD5C0700203B
:1023F0002DE9F0472A4E2B4DB04686B0B54205F187
:10240000300410D3FFF794FD4FF4004940F2E73653
:102410000027244CDFF890A0444521D306B0BDE846
:10242000F047FFF7D3BD54F8043C059354F8103C33
:10243000049354F8143C039354F8183C029354F852
:102440001C3C019354F8203C009354E90A2354E9BE
:102450000C01FFF7A7FF54F8303CDD652546CDE7BA
:10246000636A5A1C0DD03046394623EAE373C9FB30
:102470000301B94208BFB042256804D12846FFF7DE
:10248000F1FD3034C8E74FF47A720023FDF7D6FE31
:1024900002460B4605F11800514600F045F8F0E7FA
:1024A000A0000020A0000020DB3D0000034B1B68C3
:1024B0000BB9FEF715BA0020704700BF980700203F
:1024C00030B5036868B10A4A5268904209D043B1F6
:1024D000D3E90421D0E90445121945EB0101C3E910
:1024E0000421426813605A600023C0E9003330BD04
:1024F000280000200A4B10B51C689C4208BF00242D
:10250000FFF7D4FF44B12369181A064B1B6913B1B6
:102510009842A8BF184610BD6FF00040F5E700BF15
:10252000280000205C0700202DE9F74F0191591C7D
:1025300008BFB2F1FF3F82466ED0541C43F1000544
:102540006FF001034FF0FF3BB3EB04086BEB0509A1
:10255000B8F1000F79F100030FDBFFF7A7FF6FF071
:102560000103344AD2E9001C5B1A6BEB0C021E1B00
:1025700062EB0507341A67EBE075019BCAF8083077
:102580004FF02003EFF3118683F31188BFF36F8FB1
:10259000FFF78CFF012C75F100032146B8BF012124
:1025A0002A46B8BF0022244B0C1842EBE0751A688B
:1025B000CAE904459A4201D05F6852B95A68CAF81C
:1025C0000030CAF804205A68C2F800A0C3F804A07A
:1025D00014E0D2E90489DAE904454D4508BF4445D1
:1025E0001DD2B8EB040069EB0501C2E90401516892
:1025F000CAE90021C1F800A0C2F804A01A689A42F2
:1026000006D0924504D1FFF775FF0021FEF704F9CB
:1026100086F31188BFF36F8F03B0BDE8F08FB4EB82
:10262000080065EB0901BA42CAE90401C6D0126884
:10263000C3E700BF08020020280000202DE9F74F63
:102640000446FFF771FD4FF02003EFF3118583F38C
:102650001188BFF36F8F2C4BDFF8B0909846CB46B4
:10266000DFF8ACA01C60D8F800C0DAF8004066467D
:10267000D9E9002354454FEAE677CDE900230CD091
:102680005CB1D4E904239F4208BF94451BD2B2EB4E
:102690000C0063EB0701C4E904010024009BC8F8A7
:1026A0000040F218019B47EB0303CBE90023FFF73F
:1026B00021FF2146FEF7B0F885F31188BFF36F8F35
:1026C00003B0BDE8F08FDDE90067B618ACEB02009F
:1026D00047EBE27700230022C8F80000C4E9042396
:1026E0002046C9E90067FFF7EBFE85F31188BFF3C9
:1026F0006F8FA36898474FF02003EFF3118583F3A2
:102700001188BFF36F8FAEE7980700200802002002
:102710002800002038B5064C064DAC4201D30020FD
:1027200038BDD4E90112204601F01AFC1434F4E754
:10273000A0000020A000002001F069BA0A46002194
:1027400001F0A6BA10B5114800F048F800B110BD6C
:102750000F4800F043F80028F9D10E4C204600F055
:102760003DF80028F3D10C4B0C481C6000F036F803
:1027700001460028EBD100F02DF8044608B12046B0
:1027800010BD00F051F82046FAE700BF3C000020E1
:1027900030000020380000204000002034000020DD
:1027A00008B5084800F024F8074800F021F8074869
:1027B00000F01EF8064800F01BF8BDE8084000F0E5
:1027C0000BB800BF3C000020300000203800002083
:1027D0003400002000207047704700BF08B5034B4D
:1027E00002681B6810689847002008BD4C00002054
:1027F00008B5034B02685B6810689847002008BD65
:102800004C0000200268024B10689B68184700BF0C
:102810004C00002008B5034B0268DB68106898473D
:10282000002008BD4C00002070B5094C094D2069FE
:10283000AB68984718B1084B08485B689847002177
:10284000074AEB6811602069BDE87040184700BF77
:102850005C0000204C000020440000206C4300007D
:102860009C070020F8B51A4C1A4D0746AB68206942
:102870009847E8B9184E33687FB93BB90120174A29
:102880001749C2F800050A68002AFCD101333360F9
:10289000EB68206998470020F8BD002BF8D0012B89
:1028A00008D0013B33602069EB6898470020F3E7CC
:1028B0000C48F8BD0A4A1368002BFCD1074A6FF098
:1028C0007E40C2F8003500F021F83368E9E700BF28
:1028D0005C0000204C0000209C0700200000845079
:1028E00010198450E98FFFFF0020704700207047C7
:1028F000430503D54FF0FF32024B1A60024B1860BC
:10290000704700BF08118450081A8450014B1860AA
:10291000704700BF041A845008B100F003B84FF4A8
:10292000750070470246074803681342FCD021B186
:10293000054B06481B680B600360054B00201A60BE
:10294000704700BF001A845004118450081184504D
:10295000081A845000F0A0B830B129B10023014416
:10296000037001308142FBD1704700BF2DE9F04177
:10297000ADF51A7D0F4605920021144612A84FF4BA
:1029800008721E4601F084F9002308A8194628227F
:10299000069301F07DF9002F3CD0002E3AD0002C98
:1029A00038D0042106A8FFF7C9FE08A82821FFF7A0
:1029B000C5FE08A800F032F878B14FF0FF3512A834
:1029C0004FF40871FFF7C8FF06A80421FFF7C4FF02
:1029D00028460DF51A7DBDE8F08112AB0DF11C08FB
:1029E0000390CDE90163024605AB08A9CDF800804C
:1029F00006A800F0E9FC0028DFD13368A342DCD34D
:102A0000D8F800100546083138462246FFF794FEF4
:102A10003460D4E74FF0FF35DAE700BF1C2330B550
:102A200083B002A941F8043D044600F0B1F905461F
:102A3000D8B9019B1C2B1BD1D4E9003201210033F2
:102A4000E16118BF01230AB143F00203A26832B961
:102A5000E268AAB9C4E908323BB90D4D09E0E26861
:102A600043F0040362B9C4E90832284603B030BD1C
:102A7000084D20461C21FFF761FE284603B030BDFB
:102A80000022284643F00803C4E9083203B030BDF1
:102A90000E0CF000370CF00010B50C4C236813B18D
:102AA0000B4B1B686BB900F031F938B101380628BF
:102AB00096BF084B084853F8200010BD0122044B74
:102AC0001A6001230020236010BD00BFA007002072
:102AD000A40700208C430000FE8FFFFF10B5094CB7
:102AE00023681BB101230020236010BD00F07CF897
:102AF0000028F7D00138062896BF034B034853F847
:102B0000200010BDA00700208C430000FE8FFFFFB7
:102B1000BFF34F8F0549064BCA6802F4E0621343C6
:102B2000CB60BFF34F8F00BFFDE700BF00ED00E0BB
:102B30000400FA05014B5B68184700BF4400002001
:102B4000024BD0E90012C3E9001270474400002094
:102B5000704700BF10B5044620B1BFF35F8F00205F
:102B6000206010BD0348FFF7E5FFBFF35F8F002033
:102B7000206010BDCC43000010B5044610B1002306
:102B8000236010BD0248FFF7D5FF0023236010BD6E
:102B9000A843000050B10122D0E8EF3FC0E8E12F88
:102BA0000029F9D1012BF7D0BFF35F8F00207047C8
:102BB00070B40B4B0668C268D0E90154C3E9024205
:102BC000C3E90065D1E903020E68064BD1E901545F
:102BD000C3E90065C3E902401A6170BC704700BFD9
:102BE0004C0000205C00002010B5FFF77DFE70B99E
:102BF000FFF7A8FD80B9FFF735FE80B9114B1B68C0
:102C00001B0EF02B0DD00624FFF770FE00E003240E
:102C1000FFF7C6FD204610BD0424204610BD002449
:102C2000F2E7094A094B12689A4201D00724EBE700
:102C30000120FFF717FE0028F1D1054B044618606C
:102C4000E8E700BF28198450241A84500000E020CF
:102C50000C1A845030B5ADF5157D4FF40872002183
:102C60000CA801F015F8002302A8194628220193A8
:102C700001F00EF802A8FFF7D1FE18B105200DF5FE
:102C8000157D30BD1C4D4FF0FF312868FFF7BAFDB0
:102C90000446F0B90020FFF7E5FDB0B90CAA02A97F
:102CA00001A800F0D5FB04460120FFF7DBFDF0B9D9
:102CB0002868FFF7AFFD10B11048FFF73BFF204633
:102CC000002CDBD10DF5157D30BD0D48FFF732FF2F
:102CD000E4E70C48FFF72EFF012CDBD12868FFF753
:102CE00099FD0028CAD00548FFF724FFC6E706482B
:102CF000FFF720FFDCE700BF400000200444000095
:102D00001C440000EC4300003C44000008B5FFF701
:102D1000EBFD18B1FFF744FD032008BDFFF712FDDE
:102D200068B9FFF79FFD60B9154B1B681B0EF02BB0
:102D300012D0FFF7DBFDFFF733FD062008BD0420AE
:102D400008BDFFF7D3FDFFF72BFDFFF783FF00283A
:102D50000CBF0020052008BD0A4A0B4B12689A429E
:102D600005D0FFF7C3FDFFF71BFD072008BD0120BD
:102D7000FFF778FD0028E4D1044B1860E5E700BFB9
:102D800028198450241A84500000E0200C1A845022
:102D900018B111B10B681C2B01D0012070474FF402
:102DA0007F033A4AD3F8101C91425AD0D3F8102C22
:102DB000013256D0D3F8102C4FF47F030260D3F8C1
:102DC000141C334A91425ED0D3F8142C01325AD0ED
:102DD000D3F8142C4FF47F034260D3F8182C12F56B
:102DE000947F4DD0D3F8182C013249D0D3F8182C49
:102DF0004FF47F038260D3F81C1C264A91423CD0DA
:102E0000D3F81C2C013238D0D3F81C2C4FF47F039C
:102E1000C260D3F8002C70322DD0D3F8002C0132D0
:102E200029D0D3F8002C4FF47F030261D3F8042C8F
:102E3000AF321ED0D3F8042C01321AD0D3F8042CB0
:102E40004FF47F034261D3F8081C134A91420BD020
:102E5000D3F8082C013207D0D3F8083C8361002056
:102E6000704740F6FC02A7E740F237338361002049
:102E700070475122E4E79022D5E742F60412C5E7F5
:102E800040F6D862B4E742F2D002A3E7FCF8FFFFB5
:102E9000D020FFFF0429FFFF37F3FFFFA8B32DE980
:102EA000F0414C1EB4F5047F2CD25BB352B34FF00B
:102EB000000CC900E646654664464F1E03F1FF3824
:102EC0000CE0AB4216D08E4501D10CF1010CA845A7
:102ED00016D00134BC4205F1010518D8610950F83B
:102EE000211004F01F06F1401F2E18BF01F0010150
:102EF000002CE6D10025A8458E464FF0010CE8D104
:102F00006245E6D20348BDE8F081024870470020E0
:102F1000BDE8F081370CF1002DE9F04F8FB00D4680
:102F2000DDE919418346002957D129690391002120
:102F30001C60189B1960002A00F02281814A824B94
:102F400011686A6A1B689A4257D10A2955D19BF8C1
:102F5000033006930399042308467C4A0293A2FB9C
:102F600000029208CB0002EB420204F10800A1EB40
:102F70004202013BDFF8D091DFF800A204900092FA
:102F80000593189B039C1C60002C00F0CC8000264D
:102F9000049F00F0A9FA00230793069BBBF1000FE2
:102FA0003AD0002D34D053BB5B000693BBF1000F29
:102FB00036D0002D34D0E3B106A9284600F084FABB
:102FC000002800F07D81624B984212D0009000F002
:102FD0008BFA00980FB0BDE8F08F4FF47F01D1F865
:102FE0000C0C01300CBF4FF40471D1F80C1C039190
:102FF0009DE72B6A73B95648E8E75648E6E706A905
:10300000284600F061FA68B1534B9842DED0069B27
:10301000082BC9D15148D9E7082BFBD05B00069398
:103020004F48D3E72946069800F030FA0028EBD144
:10303000069B082B00F00E81042B00F03181A3F1D8
:103040000203B3FA83F35B09019301231946454A4E
:10305000136042F8843C434B19606B6AC9F8003036
:10306000D9F800206B6A9A42F5D14FF000084FF072
:10307000FF30CAF80080FFF73BFC3B4A3B4B404621
:103080001A60FFF743FC0A22019839492D4B08606A
:103090001A602A69A8F15538A8FB02126B6A120956
:1030A00003EB4303DB0303FB02F3324A9B09136088
:1030B0000123CAF800300699DBF800200B0243EA2E
:1030C000016322F07F421343CBF8003007A800F0E1
:1030D000CDF9002898D1284BA8FB04281A6814338E
:1030E000089253F8102CB6EB980F099253F80C2C59
:1030F0000A9253F8082C0B9253F8042C0C921B687C
:103100000D9301D1009B9BB93846182208A9FFF7FF
:1031100013FB183C18370136002C7FF43AAF049BA0
:10312000002B40F09A800023189A1360069B6FE7EB
:103130001A46384608A9E41AFFF7FEFA009B1F4416
:10314000E9E700BF3811845030118450ABAAAAAA15
:10315000310CF100300CF100020CF100320CF100E6
:10316000350CF100C4118450FEFFFF0F0011845094
:103170000C118450D8118450141184502C11845097
:10318000BBF1000F3FF44CAF002D3FF449AF0123DA
:103190000EA941F8203DCBF80020284600F094F914
:1031A00000287FF413AF2946069800F06FF9002835
:1031B0007FF40CAF069F082F00F0EB80042F00F087
:1031C000EA80A7F10207B7FA87F77F0901221646BE
:1031D000734B74491A6018460A60943B06606A6A29
:1031E0001A6019686A6A9142F8D14FF000086E4B74
:1031F0004FF0FF30C3F80080FFF77AFB6B4B6C4A4F
:1032000040461A60FFF782FB0A226A496A4B0F6048
:103210001A601A992B6901296A6A00F0B18067491E
:10322000A1FB03131B09012102EB4202D20303FBA2
:1032300002F3634A9B0913605B4B19600699DBF844
:1032400000200B0243EA016322F07F421343CBF8D4
:1032500000307FE603230193F7E6039BB3F5047F79
:103260003FF661AFDDE9047C204623466E6904E049
:10327000012001336345144615D85A0957F8222016
:1032800003F01F01CA401F2918BF02F00102002BE2
:10329000EED0A242ECD101308642EAD149480BE09F
:1032A00002230193D1E64FF48063DDE90310AA699C
:1032B000FFF7F4FD00285DD00023189A1360A3E601
:1032C0002946069800F0E2F800287FF47CAE069CC0
:1032D000082C51D0042C51D0A4F10204B4FA84F487
:1032E000640901231E4619462D4A136042F8843CA6
:1032F0002B4B19606B6AC9F80030D9F800206B6A53
:103300009A42F5D100274FF0FF30CAF80070FFF75E
:10331000EFFA264B264A38461A60FFF7F7FA0A22D8
:103320002449254B0C601A602A6924496B6AA1FB69
:10333000021203EB43031209DB0303FB02F3204AEF
:103340009B091360CAF80060069BDBF800101A02A4
:1033500042EA036321F07F421A43130A03F47F0316
:10336000134323F07F43CBF80030029B013B0293D1
:103370007FF407AE002029E60324B2E70224B0E779
:103380004FF47F03D3F80C1C013106D0D3F80C3C6A
:1033900045E703271AE7022718E7162343E700BF8C
:1033A000C4118450401184502C1184500011845059
:1033B000FEFFFF0F0C11845038118450ABAAAAAA4B
:1033C000D8118450360CF1002DE9F0431B4C85B028
:1033D0000746DDE90D56884620684FF0FF319146DB
:1033E000FFF710FA28BB0020FFF73CFAE8B90023EA
:1033F000CDE9005602934A46414638460C9BFFF7FA
:103400008BFD05460120FFF72DFA50B92068FFF724
:1034100001FA10B10A48FFF78DFB284605B0BDE858
:10342000F0830848FFF786FBF0E70748FFF782FBC9
:10343000DDE70648FFF77EFBD5E700BF4000002030
:10344000044400003C4400001C440000EC43000025
:1034500010B5012486B005ABCDE90124009300220C
:1034600004ABFFF759FD06B010BD00BF08B501461B
:103470004FF48060FFF750FA00230249024A0B60C4
:10348000136008BDC81184502C11845001380728DE
:1034900015D8DFE800F0100C140814141404CB68DD
:1034A00000204B6270478B6800204B6270474B686E
:1034B00000204B6270470B6800204B627047014848
:1034C000704700BF310CF1000B6802E0082B0B6065
:1034D00006D8026A13424FEA4303F7D00020704730
:1034E00000487047310CF10000230449044A0B6086
:1034F0004FF480601360FFF7FBB900BF2C118450BC
:10350000C411845008B5FDF7F5FABDE80840FDF791
:1035100087BA002070472DE9F04F002506460F4678
:103520001C464FF0FF39A84687B002F1FF3A00234E
:1035300007E06BB9252800F0E28039460493B047D4
:10354000049B1AF8010F0028F3D107B0BDE8F08FF3
:10355000642867D01AD839280AD8312859D22D289A
:1035600000F0D380302845D0252807D139460BE01C
:10357000582800F09580632800F0BD80394625204A
:10358000B04739469AF80000B047D0E770287DD0A0
:103590000DD8692846D06C2803D16C2D26D14C2536
:1035A000CFE76828EAD1682D20D14825C9E77528DA
:1035B00038D017D87328E1D1A3465BF8043B1C46EA
:1035C000214614F8010B002840F08B80B8F1030F5E
:1035D00040F0A180CC1AA9EB0404002C00F38680F3
:1035E0005C46A4E778285BD07A28C7D1002DC5D1E6
:1035F0000546A6E7B9F1000F0EDAB8F1000F00F0AA
:103600008780A0F13009B8F1000F08BF4FF0020821
:1036100097E7B9F1000FF4DB0A2202FB0909A9F1CF
:103620003009F0E77A2D03D154F8042BD31708E0C2
:103630006C2DF9D04C2DF7D1073424F00704F4E8B1
:10364000022375280FD0002A73F100010BDA3946E6
:103650002D20CDE90423B047DDE90423524263EB7A
:10366000430309F1FF39B8F1030118BF0121B8F193
:10367000010F0CBF3020202001910A21CDE9020961
:10368000009130463946FCF78DFF50E7394630202F
:10369000B04739467820B0474FF008094FF001088D
:1036A0009AF80030702B03D154F8042B00230AE061
:1036B0006C2DF9D04C2DF7D1073424F007031C46AC
:1036C0005B6854F8082BB8F1030118BF0121B8F169
:1036D000010F0CBF302020200191CDE902091021FB
:1036E000CEE739460493B047049B69E7394620206A
:1036F000B047013C71E7394654F8040B44E71D46D6
:1037000098464FF0FF3901231BE74FF0030818E7F5
:103710004FF0010815E75C46034612E70FB407B502
:1037200004A951F8040B0191FCF786FF03B05DF882
:1037300004EB04B07047044608B5084611461A4623
:10374000A047FEF729FEFDF72DFE836800EBC101BF
:10375000B3F5004F2CBF51F8220031F8120070472A
:1037600000EBC1018068B0F5004F2CBF41F822305A
:1037700021F81230704708B50122FFF7E6FF400834
:1037800008BD836800EBC101B3F5004F08D34B6857
:103790001AB143F001034B60704723F00103FAE7CD
:1037A0004B881AB143F001034B80704723F00103AB
:1037B000FAE753000122FFF7D3BF8368481CB3F533
:1037C000004F2CBF02230123C01AB0FA80F0C0F1D1
:1037D0001F0070472DE9F04104460D46FFF7CBFF6F
:1037E00001462046FFF7E9FF04EB800216699EB907
:1037F000012303FA00F0E36829460343E36020460F
:1038000015612B460222FFF7ABFF03222946204613
:10381000BDE8F041FFF7A4BF022231462046FFF782
:1038200094FF07460346022229462046FFF798FFE9
:103830003346032229462046FFF792FF03223946EA
:103840002B462046FFF78CFF02223146DFE7B2F518
:10385000802FF8B52CBF082504250023551B002216
:10386000CC1D0D4424F0070425F007052D1BED08A1
:1038700004602946C4E90023C4E902522046FFF748
:103880009CFF134686001B36471CF60804F1100106
:10389000BB4229DB324620460021FFF78AFFAF1BDF
:1038A000204601220021FFF76CFF3A463146FFF720
:1038B00080FF3346314620460022FFF751FF29465C
:1038C00020460022FFF775FF3B462946204600228E
:1038D000FFF746FF294620460122FFF752FF3146F7
:1038E000BDE8F840FFF776BF41F8042B0133CFE77E
:1038F0007047FDF7D1BF0C22C368C9B202FB01318A
:103900004B7A23B9087AB0FA80F040097047022058
:10391000704770B5C9B24468C5684FF02003EFF333
:10392000118683F31188BFF36F8F0C224A43AB18C3
:10393000187A90B10138C0B2187288B904EB8104CA
:103940000121A850E278586002F1502211605872AB
:1039500086F31188BFF36F8F70BD6FF04400F7E7F7
:103960000020F5E72DE9F8434668CFB2D0F80CE027
:103970004AB10C237B435EF803309A4252D013B114
:103980001B68002BF9D14FF02003EFF3118C83F368
:103990001188BFF36F8F0C257D430EEB05031C7A56
:1039A0000134E4B21C728CF31188BFF36F8F5AB3E9
:1039B0004FF0502C4FF00308CCF8088393F809C05F
:1039C000BCF1000F15D14FF02008EFF3118988F3F7
:1039D0001188BFF36F8FC2F800C0D3F80480B8F12C
:1039E000000F1BD15A604EF8052089F31188BFF3F0
:1039F0006F8F4FF050230325C3F80453BCF1000F21
:103A000002D0D2E901329847012C05D106EB870696
:103A1000B37803F150231C60002005E0C8F80020B3
:103A20005A60E2E76FF00F00BDE8F8830022FFF76D
:103A300099BF10B50022044601210520FDF7A8FA20
:103A40000520FDF795FA4FF050230222C3F8182500
:103A500003220020C3F80423E368C3E90000E368FD
:103A6000C3E9030010BD704770477047002307B5D6
:103A700001A88DF80430FEF76DFF03B05DF804FB7C
:103A8000902908B5134639D10A4601460020FEF7B1
:103A90006DFFBDE80840714672467346B7EE000AF6
:103AA000F7EE000AB7EE001AF7EE001AB7EE002A9A
:103AB000F7EE002AB7EE003AF7EE003AB7EE004A0A
:103AC000F7EE004AB7EE005AF7EE005AB7EE006A7A
:103AD000F7EE006AB7EE007AF7EE007A8EF3008C0C
:103AE00010B4F1EE10CA4FF66074C0F6FF740CEA21
:103AF000040CE1EE10CA10BCF44674476FF01500D8
:103B0000C7E70020FCF7C4BD0021012000F02BB85E
:103B100043B2A9B1002B12DB01215B099B0003F129
:103B2000604303F56143D3F8802200F01F0001FADF
:103B300000F022EA0002C3F88022D3F880327047F6
:103B4000002BFCDB01225B099B0003F1604303F5C2
:103B50006143D3F8801200F01F0002FA00F008431E
:103B6000C3F88002E9E700F0C2B80146006800F03F
:103B7000BEB808B5FDF770FABDE80840FDF7E6BB32
:103B800030B50B6885B04C689DF808200D89013C64
:103B90000093498923F01F03234465F3040261F372
:103BA000471223F01F030F288DF8082003930446C3
:103BB00005D86946FDF746FC204605B030BD6FF0DC
:103BC0001504F9E740E800F313F4803FD8B208BFCA
:103BD0006FF0150070470138013910F8013F11F8F6
:103BE000012F934201D1002BF7D1981A704710B5DD
:103BF0005AB10139841810F8012B11F8013FA04285
:103C000001D09A42F7D0D01A10BD1046FCE7431AF3
:103C1000934210B500EB020308D3024601399A42E1
:103C20000BD011F8014F02F8014BF8E70A4412F8E3
:103C3000014D8A4203F8014DF9D110BDF0B581EA7A
:103C40000004A50703460BD0013B0A4491421AD158
:103C5000F0BD002AFCD011F8014B013A03F8014BEA
:103C60009C07F6D19508AC001E1F0F19B94205D16B
:103C70006FF00306234406FB0522E5E751F804CB69
:103C800046F804CFF2E711F8014B03F8014FDDE7E6
:103C9000034670B5C9B29C0710D141EA012444EA39
:103CA0000445940803EB8406B3420DD16FF003057D
:103CB00005FB04241C44A34209D170BD002AFCD09A
:103CC00003F8011B013AE6E743F8045BECE703F86D
:103CD000011BF0E708B50020FDF746FB08B5FDF72E
:103CE0005FF8FDF7E1F8BDE80840FEF7F7BEF8B56C
:103CF00006460F464FF02003EFF3118583F311883A
:103D0000BFF36F8FFEF748FB394604463046FFF796
:103D1000E1FF85F31188BFF36F8F2046BDE8F840BF
:103D2000FDF740BBFFF7A0BE30B50024846141EA37
:103D3000020414F00304C0E9023201610CD14461B1
:103D4000A34203D1C0E90000002030BD4569013421
:103D50000D6041611144F3E76FF01500F5E703468C
:103D60000020C3E90033C3E90200704721B9EFF333
:103D7000058008B9FDF7AEB881F31188BFF36F8FE6
:103D80007047034620B9EFF305820AB9FDF7A2B8E0
:103D900083F31188BFF36F8F70474FF02003EFF369
:103DA000118083F31188BFF36F8FFFF7EABF0368B9
:103DB000984214BF18460020704710B54FF02003FA
:103DC000EFF3118483F31188BFF36F8FFEF71AF9B5
:103DD00084F31188BFF36F8F10BD50F8103C70B59D
:103DE0000446A0F11805CBB14FF02003EFF3118684
:103DF00083F31188BFF36F8F294650F8100CFEF73C
:103E0000ABF814F80B3C23F0020304F80B3C00233E
:103E100044F8103C86F31188BFF36F8F14F80B3C05
:103E2000284623F0140304F80B3CBDE87040FFF76C
:103E3000C4BF38B504460D46FEF708FA637B43F06D
:103E4000020363737DB12B68A5609D4212D08BB1D4
:103E500094F90E2093F90E10914205DD5A68C4E9D9
:103E6000003214605C6038BD69688B4202D01B6808
:103E7000002BEFD16B68256063606B681C606C6021
:103E8000F1E738B54FF02003EFF3118283F3118887
:103E9000BFF36F8FFFF78BFF044682F31188BFF3E8
:103EA0006F8FC8B14FF02003EFF3118583F31188B2
:103EB000BFF36F8F01468068FEF74EF8637B23F0F7
:103EC000020363730023A36085F31188BFF36F8F30
:103ED00004F1180000F004F8204638BDFCF7CEBB12
:103EE00010B54FF02002EFF3118482F31188BFF375
:103EF0006F8F03683BB1FEF7E3FA002084F311886B
:103F0000BFF36F8F10BD6FF01500F7E710B54FF0DE
:103F10002003EFF3118483F31188BFF36F8FFEF753
:103F2000E9FA84F31188BFF36F8F10BD70B50446B2
:103F30000E464FF02003EFF3118583F31188BFF392
:103F40006F8FFEF7D7FA012805DDA04203DD314669
:103F50002046FCF761FC85F31188BFF36F8F70BDBD
:103F600010B400F10C04C0E903445DF8044BFFF702
:103F70006EBC7047F8C2FF7F0100000055060000CC
:103F800000000000351C00000000000015270000A4
:103F900000000000CD15000000000000333A0000D2
:103FA00070000020B107000080000020DD3C000010
:103FB00090000020C1170000000000000000000079
:103FC000093B000000000000093B00000000000069
:103FD000093B000000000000093B00000000000059
:103FE000093B000000000000110700000000000075
:103FF000093B000000000000093B00000000000039
:10400000093B000000000000093B00000000000028
:10401000093B000000000000093B00000000000018
:10402000093B000000000000093B00000000000008
:10403000093B000000000000093B000000000000F8
:10404000093B000000000000093B000000000000E8
:10405000093B000000000000093B000000000000D8
:10406000093B0000000000008D0700000000000078
:10407000093B000000000000093B000000000000B8
:10408000093B000000000000093B000000000000A8
:10409000093B000000000000093B00000000000098
:1040A000093B000000000000093B00000000000088
:1040B000093B000000000000093B00000000000078
:1040C000093B000000000000093B00000000000068
:1040D000093B000000000000093B00000000000058
:1040E000093B000000000000093B00000000000048
:1040F000093B000000000000093B00000000000038
:10410000093B000000000000093B00000000000027
:10411000093B000000000000093B00000000000017
:10412000093B000000000000093B00000000000007
:10413000093B000000000000093B000000000000F7
:10414000093B000000000000093B000000000000E7
:10415000093B000000000000093B000000000000D7
:10416000093B000000000000093B000000000000C7
:10417000093B000000000000093B000000000000B7
:10418000093B000000000000093B000000000000A7
:10419000093B000000000000093B00000000000097
:1041A000093B000000000000093B00000000000087
:1041B000093B000000000000093B00000000000077
:1041C000093B0000FFFFFFFFFFFFFFFFFFFFFFFFB7
:1041D000DEE61E284CBBCE8F025B0000DEE61E280A
:1041E000EAAC45B8025B0000DEE61E284CBBCE8F71
:1041F000025B000000000000000000000000000062
:104200000338FDD8704700002D3A00001339000034
:104210006539000000000000F73800005346000038
:10422000420100005A4600000501000064460000FB
:10423000140100006D4600001501000076460000E4
:10424000390100007F460000090100008A46000095
:104250000A010000954600000A0100009F46000088
:104260000B010000A94600000F010000B446000049
:1042700010010000BF46000011010000CA46000006
:104280000E010000D446000021010000DD460000C0
:1042900022010000E646000023010000EF46000076
:1042A00024010000F846000018010000004700004B
:1042B0002A010000084700003A01000010470000F2
:1042C0002C010000184700001C01000021470000DD
:1042D0001D0100002A4700001701000034470000BC
:1042E0003101000040470000040100000000000010
:1042F00000020000000400000008000000100000A0
:1043000000000000033B00000D0E0000CD0D00007A
:10431000750E0000AD0D00001C0000200400002000
:1043200014000020000000000C000020020000002B
:104330003443000000000000A24700000600000017
:10434000E0FF0F0000000020AA470000210000004D
:10435000E0FF00207C3F0000A43F0000AC3F0000D5
:10436000BC3F0000BC3F0000F5FFFFFF436F756CD2
:1043700064206E6F74206C6F636B20706F77657252
:104380002073617665206D7574657800FF8FFFFF7F
:10439000FF8FFFFFFE8FFFFFFE8FFFFFFD8FFFFFF1
:1043A000FC8FFFFFFC8FFFFF43616E277420696E57
:1043B000697469616C697A65206D757465782C2003
:1043C000776173204E554C4C0D0A000043616E27F7
:1043D0007420756E6C6F636B206D757465782C201E
:1043E000776173204E554C4C0D0A00004661696C94
:1043F00020746F2061637175697265206D757465D5
:10440000780A00004661696C20746F2072656C65E3
:10441000617365206D757465780A00004661696C8A
:1044200020746F20696E63726561736520504D2042
:10443000636F756E7465720A000000004661696CF6
:1044400020746F20646563726561736520504D2030
:10445000636F756E7465720A00000000000100044D
:104460000401080C30313233343536373839616263
:1044700063646566004661696C656420746F2072D0
:1044800065626F6F743A207370696E6E696E672033
:10449000656E646C6573736C792E2E2E0A007379C9
:1044A000735F636C6F636B005365637572650909B5
:1044B000004E6F6E2D5365637572650900253032AD
:1044C00075202530327520307825303578203078C9
:1044D000253035782009002563004E6F6E2D536519
:1044E0006375726500466C61736820726567696FF9
:1044F0006E730909446F6D61696E09095065726DCB
:10450000697373696F6E730A004E6F6E2D73656306
:104510007572652063616C6C61626C6520726567A1
:10452000696F6E203020706C6163656420696E2055
:10453000666C61736820726567696F6E2025642000
:10454000776974682073697A652025642E0A0043B0
:104550006F756C64206E6F7420696E697469616C2C
:10456000697A652073656375726520736572766913
:104570006365732028657272202564292E0A005312
:1045800052414D20726567696F6E0909446F6D6114
:10459000696E09095065726D697373696F6E730A8C
:1045A000005065726970686572616C0909446F6DCD
:1045B00061696E09095374617475730A002530329C
:1045C0007520252D32317325730009534B49500A4C
:1045D00000094552524F520A00094F4B0A005350EE
:1045E0004D3A204E5320696D61676520617420301B
:1045F0007825780A0053504D3A204E53204D5350A1
:1046000020617420307825780A0053504D3A204EAE
:104610005320726573657420766563746F722061D0
:104620007420307825780A0053504D3A2070726516
:104630007061726520746F206A756D7020746F20D0
:104640004E6F6E2D53656375726520696D61676588
:104650002E0A004E52465F5030004E52465F434C89
:104660004F434B004E52465F52544330004E524629
:104670005F52544331004E52465F4E564D43004EFA
:1046800052465F554152544531004E52465F5541A6
:1046900052544532004E52465F5457494D32004EF7
:1046A00052465F5350494D33004E52465F54494D78
:1046B000455230004E52465F54494D455231004EEE
:1046C00052465F54494D455232004E52465F534167
:1046D000414443004E52465F50574D30004E5246C3
:1046E0005F50574D31004E52465F50574D32004E8D
:1046F00052465F50574D33004E52465F5744540068
:104700004E52465F495043004E52465F564D43005D
:104710004E52465F465055004E52465F4547553112
:10472000004E52465F45475532004E52465F445058
:10473000504943004E52465F4750494F544531005F
:104740004E52465F524547554C41544F5253006DAF
:10475000757465785F696E69742063616C6C6564FB
:104760002077697468204E554C4C20706172616DE1
:104770006574657200436F756C64206E6F742061A0
:104780006C6C6F63617465206D757465782062650B
:10479000666F726520696E697469616C697A696EA9
:1047A0006700464C4153485F30005352414D5F30E3
:1047B000004552524F523A2043616E6E6F7420662C
:1047C000756C66696C6C204558545F415049207285
:1047D0006571756573742E0D0A005741524E494E2E
:1047E000473A204F7074696F6E616C204558545F72
:1047F0004150492072657175657374206E6F742025
:1048000066756C66696C6C65642E0D0A0048575FAE
:1048100043433331305F30006D61696E000000004A
:104820000000000013350000A0000020010000007F
:10483000C800002001000000DC0000200100000092
:10484000F0000020010000000090D00328000020AC
:1048500028000020600000206C0000206400002080
:104860005C0000203800002000000000112B000038
:10487000792B0000512B0000952B0000552B0000D8
:10488000B4070020A8070020B007002000000000A7
:10489000AC0700205E4600005C44000008420000B7
:1048A000100200209E4400000000000000000000F4
:1048B000000000000D4800000000000000000000A3
:1048C00000000000A0000020A00000200000000068
:1048D000000000000F000000B4000020B400002021
:1048E00000000000000000000F000000C8000020D1
:1048F000C800002000000000000000000F000000C1
:10490000DC000020DC0000200000000000000000AF
:104910000F000000F0000020F00000200000000068
:10492000000000000F000000FFFFFFFFFFFFFFFF80
:10493000FFFFFFFFFFFFFFFFFFFFFFFFFFFFFFFF87
:104940000000000000000000000000000000000067
:104950000000000000000000000000000000000057
:104960000000000000000000000000000000000047
:107FE0007FE97FE9F8F71EBE7FE97FE9F8F772BE07
:107FF0007FE97FE9FBF744BD0000000000000000BE
:10C00000D08C022001080100332302003108010016
:10C010003108010031080100310801003108010038
:10C02000000000000000000000000000ED0501001D
:10C030003108010000000000490501002D02010047
:10C04000C1070100C1070100C1070100C1070100CC
:10C05000C1070100C1070100C1070100C1070100BC
:10C06000C1070100C1070100C1070100C1070100AC
:10C07000C1070100C1070100C1070100C10701009C
:10C08000C1070100C1070100C1070100C10701008C
:10C09000C1070100C1070100C1070100C10701007C
:10C0A000C1070100C1070100C1070100C10701006C
:10C0B0007D250100DF260200C1070100C107010044
:10C0C000C1070100C1070100C1070100C10701004C
:10C0D000C1070100C1070100C1070100C10701003C
:10C0E000C1070100C1070100FD260200C1070100D0
:10C0F000C1070100C1070100C1070100C10701001C
:10C10000C1070100C1070100C1070100C10701000B
:10C11000C1070100C1070100C1070100C1070100FB
:10C12000C1070100C1070100C1070100C1070100EB
:10C13000C1070100C1070100C1070100C1070100DB
:10C14000C107010000000000000000000000000026
:10C1500000000000000000000000000000000000DF
:10C1600000000000000000000000000000000000CF
:10C1700000000000000000000000000000000000BF
:10C1800000000000000000000000000000000000AF
:10C19000000000000000000000000000000000009F
:10C1A000000000000000000000000000000000008F
:10C1B000000000000000000000000000000000007F
:10C1C000000000000000000000000000000000006F
:10C1D000000000000000000000000000000000005F
:10C1E000000000000000000000000000000000004F
:10C1F000000000000000000000000000000000003F
:10C20000DEE61E284CBBCE8F025B00003C00000027
:10C2100028B801000100000000C0000000C00000BC
:10C22000FFFF02910000000000000000000000007D
:10C23000000000000000000000000000FFFFFFFF02
:10C2400081F0004102E000BF83F0004330B54FEAC7
:10C2500041044FEA430594EA050F08BF90EA020F34
:10C260001FBF54EA000C55EA020C7FEA645C7FEAC7
:10C27000655C00F0E2804FEA5454D4EB5555B8BFEA
:10C280006D420CDD2C4480EA020281EA030382EA5B
:10C29000000083EA010180EA020281EA0303362DED
:10C2A00088BF30BD11F0004F4FEA01314FF4801CC0
:10C2B0004CEA113102D0404261EB410113F0004FD2
:10C2C0004FEA03334CEA133302D0524263EB430389
:10C2D00094EA050F00F0A780A4F10104D5F1200E27
:10C2E0000DDB02FA0EFC22FA05F2801841F1000182
:10C2F00003FA0EF2801843FA05F359410EE0A5F156
:10C3000020050EF1200E012A03FA0EFC28BF4CF086
:10C31000020C43FA05F3C01851EBE37101F000453C
:10C3200007D54FF0000EDCF1000C7EEB00006EEB49
:10C330000101B1F5801F1BD3B1F5001F0CD34908D3
:10C340005FEA30004FEA3C0C04F101044FEA44522A
:10C3500012F5800F80F09A80BCF1004F08BF5FEAB1
:10C36000500C50F1000041EB045141EA050130BD91
:10C370005FEA4C0C404141EB010111F4801FA4F134
:10C380000104E9D191F0000F04BF01460020B1FA89
:10C3900081F308BF2033A3F10B03B3F120020CDAC1
:10C3A0000C3208DD02F1140CC2F10C0201FA0CF09F
:10C3B00021FA02F10CE002F11402D8BFC2F1200C04
:10C3C00001FA02F120FA0CFCDCBF41EA0C019040BA
:10C3D000E41AA2BF01EB0451294330BD6FEA040403
:10C3E0001F3C1CDA0C340EDC04F11404C4F12002EE
:10C3F00020FA04F001FA02F340EA030021FA04F300
:10C4000045EA030130BDC4F10C04C4F1200220FA56
:10C4100002F001FA04F340EA0300294630BD21FA94
:10C4200004F0294630BD94F0000F83F4801306BF5A
:10C4300081F480110134013D4EE77FEA645C18BF4E
:10C440007FEA655C29D094EA050F08BF90EA020FE5
:10C4500005D054EA000C04BF1946104630BD91EADD
:10C46000030F1EBF0021002030BD5FEA545C05D1E0
:10C470004000494128BF41F0004130BD14F580041F
:10C480003CBF01F5801130BD01F0004545F0FE4193
:10C4900041F470014FF0000030BD7FEA645C1ABFC8
:10C4A000194610467FEA655C1CBF0B46024650EAFF
:10C4B000013406BF52EA033591EA030F41F400212B
:10C4C00030BD00BF90F0000F04BF0021704730B5B1
:10C4D0004FF4806404F132044FF000054FF0000186
:10C4E00050E700BF90F0000F04BF0021704730B547
:10C4F0004FF4806404F1320410F0004548BF40421C
:10C500004FF000013EE700BF42004FEAE2014FEA70
:10C5100031014FEA02701FBF12F07F4393F07F4F4B
:10C5200081F06051704732F07F4208BF704793F04E
:10C530007F4F04BF41F40021704730B54FF4607461
:10C5400001F0004521F000411CE700BF50EA010264
:10C5500008BF704730B54FF000050AE050EA01020D
:10C5600008BF704730B511F0004502D5404261EB7D
:10C5700041014FF4806404F132045FEA915C3FF4BE
:10C58000D8AE4FF003025FEADC0C18BF03325FEA5B
:10C59000DC0C18BF033202EBDC02C2F1200300FA0C
:10C5A00003FC20FA02F001FA03FE40EA0E0021FA31
:10C5B00002F11444BDE600BF70B54FF0FF0C4CF41F
:10C5C000E06C1CEA11541DBF1CEA135594EA0C0FD1
:10C5D00095EA0C0F00F0DEF82C4481EA030621EA0C
:10C5E0004C5123EA4C5350EA013518BF52EA033547
:10C5F00041F4801143F4801338D0A0FB02CE4FF0F9
:10C600000005E1FB02E506F00042E0FB03E54FF028
:10C610000006E1FB03569CF0000F18BF4EF0010E20
:10C62000A4F1FF04B6F5007F64F5407404D25FEA1C
:10C630004E0E6D4146EB060642EAC62141EA5551CF
:10C640004FEAC52040EA5E504FEACE2EB4F1FD0C11
:10C6500088BFBCF5E06F1ED8BEF1004F08BF5FEA8F
:10C66000500E50F1000041EB045170BD06F0004641
:10C6700046EA010140EA020081EA0301B4EB5C04EE
:10C68000C2BFD4EB0C0541EA045170BD41F48011E6
:10C690004FF0000E013C00F3AB8014F1360FDEBF0B
:10C6A000002001F0004170BDC4F10004203C35DAE7
:10C6B0000C341BDC04F11404C4F1200500FA05F36A
:10C6C00020FA04F001FA05F240EA020001F000420B
:10C6D00021F0004110EBD37021FA04F642EB060181
:10C6E0005EEA430E08BF20EAD37070BDC4F10C04AB
:10C6F000C4F1200500FA04F320FA05F001FA04F26F
:10C7000040EA020001F0004110EBD37041F100015A
:10C710005EEA430E08BF20EAD37070BDC4F1200565
:10C7200000FA05F24EEA020E20FA04F301FA05F2CD
:10C7300043EA020321FA04F001F0004121FA04F275
:10C7400020EA020000EBD3705EEA430E08BF20EA45
:10C75000D37070BD94F0000F0FD101F0004640007F
:10C7600041EB010111F4801F08BF013CF7D041EA01
:10C77000060195F0000F18BF704703F00046520005
:10C7800043EB030313F4801F08BF013DF7D043EAD6
:10C790000603704794EA0C0F0CEA135518BF95EA8C
:10C7A0000C0F0CD050EA410618BF52EA4306D1D113
:10C7B00081EA030101F000414FF0000070BD50EA32
:10C7C000410606BF1046194652EA430619D094EABC
:10C7D0000C0F02D150EA013613D195EA0C0F05D1A6
:10C7E00052EA03361CBF104619460AD181EA0301FA
:10C7F00001F0004141F0FE4141F470014FF00000B2
:10C8000070BD41F0FE4141F4780170BD70B54FF04C
:10C81000FF0C4CF4E06C1CEA11541DBF1CEA1355CC
:10C8200094EA0C0F95EA0C0F00F0A7F8A4EB0504AE
:10C8300081EA030E52EA03354FEA013100F08880A5
:10C840004FEA03334FF0805545EA131343EA12636E
:10C850004FEA022245EA111545EA10654FEA002623
:10C860000EF000419D4208BF964244F1FD0404F5DC
:10C87000407402D25B084FEA3202B61A65EB030538
:10C880005B084FEA32024FF480104FF4002CB6EBF5
:10C89000020E75EB030E22BFB61A754640EA0C0075
:10C8A0005B084FEA3202B6EB020E75EB030E22BFB5
:10C8B000B61A754640EA5C005B084FEA3202B6EBF6
:10C8C000020E75EB030E22BFB61A754640EA9C00B5
:10C8D0005B084FEA3202B6EB020E75EB030E22BF85
:10C8E000B61A754640EADC0055EA060E18D04FEA43
:10C8F000051545EA16754FEA06164FEAC30343EAE3
:10C9000052734FEAC2025FEA1C1CC0D111F4801FAF
:10C910000BD141EA00014FF000004FF0004CB6E7A8
:10C9200011F4801F04BF01430020B4F1FD0C88BF47
:10C93000BCF5E06F3FF6AFAEB5EB030C04BFB6EB52
:10C94000020C5FEA500C50F1000041EB045170BD45
:10C950000EF0004E4EEA113114EB5C04C2BFD4EB72
:10C960000C0541EA045170BD41F480114FF0000EF6
:10C97000013C90E645EA060E8DE60CEA135594EA72
:10C980000C0F08BF95EA0C0F3FF43BAF94EA0C0F75
:10C990000AD150EA01347FF434AF95EA0C0F7FF4EA
:10C9A00025AF104619462CE795EA0C0F06D152EA3E
:10C9B00003353FF4FDAE1046194622E750EA410622
:10C9C00018BF52EA43067FF4C5AE50EA41047FF433
:10C9D0000DAF52EA43057FF4EBAE12E74FF0FF3C98
:10C9E00006E000BF4FF0010C02E000BF4FF0010C69
:10C9F0004DF804CD4FEA410C7FEA6C5C4FEA430CE2
:10CA000018BF7FEA6C5C1BD001B050EA410C0CBF30
:10CA100052EA430C91EA030F02BF90EA020F002092
:10CA2000704710F1000F91EA030F58BF994208BFF9
:10CA300090422CBFD8176FEAE37040F001007047B6
:10CA40004FEA410C7FEA6C5C02D150EA013C07D10D
:10CA50004FEA430C7FEA6C5CD6D152EA033CD3D058
:10CA60005DF8040B704700BF8446104662468C4652
:10CA70001946634600E000BF01B5FFF7B7FF002885
:10CA800048BF10F1000F01BD4DF808EDFFF7F4FFAE
:10CA90000CBF012000205DF808FB00BF4DF808ED39
:10CAA000FFF7EAFF34BF012000205DF808FB00BF5C
:10CAB0004DF808EDFFF7E0FF94BF012000205DF87E
:10CAC00008FB00BF4DF808EDFFF7CEFF94BF012033
:10CAD00000205DF808FB00BF4DF808EDFFF7C4FF2C
:10CAE00034BF012000205DF808FB00BF4FEA41027F
:10CAF00012F5001215D211D56FF47873B3EB6252B0
:10CB000012D94FEAC12343F0004343EA505311F0D6
:10CB1000004F23FA02F018BF404270474FF0000068
:10CB2000704750EA013005D111F0004008BF6FF0A6
:10CB3000004070474FF00000704700BF4FEA4102CD
:10CB4000B2F1E04324BFB3F5001CDCF1FE5C0DD96B
:10CB500001F0004C4FEAC0024CEA5070B2F1004FB5
:10CB600040EB830008BF20F00100704711F0804FB8
:10CB700021D113F13872BCBF01F00040704741F47D
:10CB800080114FEA5252C2F11802C2F1200C10FA81
:10CB90000CF320FA02F018BF40F001004FEAC12365
:10CBA0004FEAD32303FA0CFC40EA0C0023FA02F309
:10CBB0004FEA4303CCE77FEA625307D150EA0133DF
:10CBC0001EBF4FF0FE4040F44000704701F00040AF
:10CBD00040F0FE4040F40000704700BF53B94AB92E
:10CBE000002908BF00281CBF4FF0FF314FF0FF3075
:10CBF00000F070B9ADF1080C6DE904CE00F006F854
:10CC0000DDF804E0DDE9022304B070472DE9F04FC0
:10CC1000099E04468946002B40F083808A421546CF
:10CC200045D9B2FA82F24AB1C2F1200701FA02F301
:10CC30009540944020FA07F747EA03094FEA154E5A
:10CC4000230C1FFA85F8B9FBFEFC0EFB1C990CFBAC
:10CC500008F143EA094399420AD9EB182CBF012095
:10CC60000020994202D9002800F01D810CF1FF3C00
:10CC7000591AA3B2B1FBFEF00EFB101100FB08F82D
:10CC800043EA0144A04505D92C1902D2A04500F27F
:10CC90000E810138A4EB080440EA0C4000271EB1C5
:10CCA000D4400023C6E900433946BDE8F08F002A8E
:10CCB00051D0B2FA82F2002A40F0AF80491B4FEA0D
:10CCC000154E1FFA85F80127230CB1FBFEFC0EFB65
:10CCD0001C1108FB0CF043EA014398420AD9EB18F7
:10CCE0002CBF01210021984202D9002900F0D780F1
:10CCF0000CF1FF3C191AA3B2B1FBFEF00EFB1011B0
:10CD000008FB00F843EA0144A04505D92C1902D2DA
:10CD1000A04500F2C1800138A4EB080440EA0C40B1
:10CD2000BDE78B4208D9002E74D00027C6E9000168
:10CD300038463946BDE8F08FB3FA83F767B98B42BE
:10CD4000C0F0A480824240F2A1803846002EABD0D1
:10CD5000C6E90049A8E7FFDEC7F12005BB4002FA9B
:10CD600007FC01FA07F4EA4020FA05F8E94000FA66
:10CD700007FE1A4348EA04044FEA1248200C1FFA3F
:10CD800082F9B1FBF8FA08FB1A110AFB09FB40EA29
:10CD900001418B450AD951182CBF012300238B4533
:10CDA00002D9002B00F088800AF1FF3AA1EB0B01B9
:10CDB000A4B2B1FBF8F008FB101100FB09F944EA3A
:10CDC0000141894504D9511801D289457BD80138E0
:10CDD00040EA0A40A1EB0901A0FB0C894945444601
:10CDE0004B4602D306D1C64504D20138B8EB0C0439
:10CDF00069EB0203002E5DD0BEEB040261EB030180
:10CE000001FA05F522FA07F3F94000271D43C6E9A8
:10CE1000005149E73746304646E7C2F120009540C9
:10CE200001FA02F721FA00F34FEA154E24FA00F155
:10CE30001FFA85F894403943B3FBFEF00F0C0EFB4C
:10CE4000103300FB08FC47EA03439C4507D9EB1865
:10CE50002CBF012700279C4500D98FB30138A3EBD5
:10CE60000C0389B2B3FBFEF70EFB173307FB08FC7C
:10CE700041EA03418C4504D9691801D28C4525D873
:10CE8000013FA1EB0C0147EA00471DE7841A61EB63
:10CE900003030120994659E702382C443CE7ACF1E2
:10CEA000020C2B4426E7ACF1020C2B44E0E60238DE
:10CEB0002C44EFE63746F7E6AAF1020A114475E77B
:10CEC00002382B44CBE70238114481E7023F294462
:10CED000D7E700BF704700BF4A0011D212F5001219
:10CEE00011D20DD56FF47873B3EB62520ED44FEAC2
:10CEF000C12343F0004343EA505323FA02F0704742
:10CF00004FF00000704750EA013002D14FF0FF307F
:10CF100070474FF00000704738B5002200230446E8
:10CF20000D46FFF7BBFD28B920462946BDE838402D
:10CF300000F00AB8204605F1004100F005F8404233
:10CF400061EB410138BD00BFD0B500220B4B064656
:10CF50000F46FFF731FBFFF7BFFF0446FFF7B2FABA
:10CF60000022074BFFF728FB02460B4630463946A6
:10CF7000FFF76AF9FFF7B0FF2146D0BD0000F03D92
:10CF80000000F04110F8012B11F8013B012A28BFE5
:10CF90009A42F7D0D01A7047034613F8012B002AA3
:10CFA000FBD1181A013870472DE9F043054693B0BC
:10CFB0000C4609B9002024E008680028FAD08B68E4
:10CFC0006268191D91420BD80422B149184416F029
:10CFD00080FA28B90423EB60A3680433A36074E0EB
:10CFE000A3686268591D91420ED820680522A9499C
:10CFF000184416F06EFA38B90120A368E8600533CA
:10D00000A36013B0BDE8F083A3686268191D914264
:10D010000DD820680422A049184416F05AFA30B9F5
:10D0200002230120EB60A36868610433E8E7D4E9D8
:10D030000172BA42BED22068835C222B04D1214601
:10D04000284604F0ADFDDCE72D2B03D0A3F130061C
:10D05000092E50D8002301930028ABD0BF1A02AE8E
:10D060009F4202EB03010ED0415C39292FD83029B1
:10D0700005D22D2903D02E2901D02B2903D1F1541B
:10D0800001333F2BECD112AA1344002201A93046F0
:10D0900003F8402C13F030F8019F59EC108BB74285
:10D0A00088D079A3D3E9002385ED060B10EE100A92
:10D0B0004946FFF707FD70B16FF000436B6108232D
:10D0C000BE1BA768EB603E44A660012099E7452996
:10D0D000D5D06529D2E70022704B40464946FFF77C
:10D0E000E7FC10B14FF00043E8E740464946FFF740
:10D0F000FDFC6861E3E75B2B53D1E368B3F57A7F0E
:10D10000BFF458AF0133E360835C5B2B7FF452AF15
:10D110000132A260204615F04FFAD4E90123934270
:10D1200062D22268D25C5D2A09D10026E368013B05
:10D13000E3602023C5E90263A36801334EE74FF0A3
:10D1400000084646013BA360206915F067FA0746D0
